:020000040800F2
:10000000C826002091010008550700084D07000888
:1000100051070008D504000877130008000000000D
:100020000000000000000000000000007B0D000840
:10003000670600080000000079090008C5100008E4
:10004000AB010008AB010008AB010008AB010008E0
:10005000AB010008AB010008AB010008AB010008D0
:10006000AB010008AB010008AB010008AB010008C0
:10007000AB010008AB01000801050008AB01000856
:10008000AB01000849050008AB010008AB010008FE
:10009000AB010008AB010008AB010008AB01000890
:1000A000AB010008AB010008AB010008AB01000880
:1000B000AB010008AB010008AB010008AB01000870
:1000C000AB010008AB010008AB010008AB01000860
:1000D000AB01000861110008AB010008AB0100088A
:1000E000AB010008AB010008AB010008AB01000840
:1000F000AB01000800F002F800F03AF80AA090E81E
:10010000000C82448344AAF10107DA4501D100F0D2
:100110002FF8AFF2090EBAE80F0013F0010F18BF65
:10012000FB1A43F001031847C0570000E0570000D6
:10013000103A24BF78C878C1FAD8520724BF30C813
:1001400030C144BF04680C607047000000230024E5
:1001500000250026103A28BF78C1FBD8520728BFD7
:1001600030C148BF0B6070471FB51FBD10B510BD33
:1001700000F06EF81146FFF7F7FF01F0B7F900F055
:10018000A0F803B4FFF7F2FF03BC01F0F6F800009B
:100190000948804709480047FEE7FEE7FEE7FEE71B
:1001A000FEE7FEE7FEE7FEE7FEE7FEE70448054957
:1001B000054A064B70470000C9100008F50000080A
:1001C000C8200020C8260020C8220020C822002005
:1001D000704700000FB4044910B503AA029800F05C
:1001E00009F810BC5DF814FB400000207047704710
:1001F00070477047074B70B50D467B4400F011F80F
:100200000446284600F020F810B14FF0FF3070BDD2
:10021000204670BDBF12000001694A1C02610878C7
:10022000704700B58FB0CDE9013100210591054936
:100230007944CDE903101146684600F02EF80FB05E
:1002400000BD0000E5FFFFFF007B00F0800070476D
:10025000754600F03FF8AE4605006946534620F06B
:100260000700854618B020B5FFF7A0FFBDE8204085
:100270004FF000064FF000074FF000084FF0000B62
:1002800021F00701AC46ACE8C009ACE8C009ACE815
:10029000C009ACE8C0098D4670472DE9F04106461B
:1002A0000024D6E90170F5688046304603E04146F7
:1002B000B847641C3046A8470028F8D12046BDE85E
:1002C000F08110B50446AFF300802046BDE8104031
:1002D000FFF757BF004870476820002038B5044634
:1002E000062C0CD004DC032C60D0052C7ED104E05D
:1002F0000B2C29D00D2CF9D100E000BF00BF01214B
:10030000FF2002F05BF88021122002F057F86448C9
:100310000078012814D1634802F0A3F8624802F083
:10032000A0F8624802F09DF80121FF2002F046F893
:100330000021152002F042F85D4802F092F802E038
:100340005C4802F08EF8A9E055480078012818D1E1
:10035000112143F2031001F0FBFF822143F2080058
:1003600001F0F6FF544802F057F8544802F054F8F0
:10037000534802F051F8042144F2074001F0E8FF2D
:100380000FE0112143F2031001F0E2FF822143F25A
:10039000080001F0DDFF484802F03EF8494802F04D
:1003A0003BF80221032002F07DF877E0802143F240
:1003B000080001F0CDFF444802F02EF838480078DC
:1003C00001281CD1414802F027F8414802F024F8E6
:1003D000A82143F6180001F0BBFF102143F2216071
:1003E00001F0B6FFB02143F6010000E055E001F056
:1003F000AFFF042144F2074001F0AAFF33E02121BE
:1004000044F2407001F0A4FF2A2145F21E0001F0E1
:100410009FFFF82145F2020001F09AFF012145F209
:100420001F0001F095FF61214FF4864001F090FF1D
:10043000694643F6180001F039FD9DF8000040F0D0
:10044000600143F6180001F083FF694643F2216022
:1004500001F02CFD9DF8000000F0DF0143F2216067
:1004600001F076FF00BF0221032002F01BF845F0E7
:10047000010145F2010001F06BFF00214FF45450DF
:1004800001F066FF792143F2015001F061FFE021A4
:1004900043F2025001F05CFF00E000BF00BF38BD36
:1004A00046000020BE270008BA2A0008E22A0008F9
:1004B000462C0008B6240008364F00084E540008A9
:1004C00046550008265400087A3400089A3D000872
:1004D000B230000800BFFEE710B54FF4805102486B
:1004E00000F032F910BD00000004024010B54FF4D6
:1004F0008051024800F026F910BD000000040240BF
:1005000010B54FF4005000F071F8B0B14FF44C301A
:1005100000F052F80021094800F05CF8002107487B
:10052000143000F057F800220321054800F0F0FBDA
:10053000FFF7D2FF01200349087010BD446002405C
:10054000003800405400002010B54FF0007000F05B
:100550004DF860B14FF0407000F02EF800210448D3
:1005600000F038F800228021024800F030FE10BD73
:10057000806002400044004070B505460C46FFF71D
:10058000B5FF01F069FE0A48056584644566C465E7
:1005900001220321074800F0BBFB0121044844303D
:1005A00000F018F801210248583000F013F870BD2F
:1005B000006002400038004000F0805111B903494A
:1005C000486001E002490860704700000060024096
:1005D0000464024021B1026842F00102026004E0BA
:1005E00002684FF6FE731A40026070470146002011
:1005F000002201F0805313B9054B1A6801E0054B46
:100600001A6802EA01030BB1012000E000207047E4
:1006100000600240006402401AB103680B430360AB
:1006200002E003688B430360704710B50022026844
:1006300047F6F0739A430C6A8B6823430C69234393
:100640004C6923438C692343CC6923434C6A23437D
:100650008C6A23431A430260CB6843600B68836053
:100660004B68C36010BD7047F0B502460B460021D1
:1006700000240025002000BF35E0012606FA01F421
:100680001E6806EA0405A5422CD110684F00032617
:10069000BE40B0431E794F00BE40304310601E790B
:1006A000012E02D01E79022E12D190684F0003262F
:1006B000BE40B0435E794F00BE40304390609088AA
:1006C00001268E40B0439E798E40B6B23043908072
:1006D000D0684F000326BE40B043DE794F00BE40D5
:1006E0003043D060491C1029C7D3F0BDF0B50023BA
:1006F00000244D07ED0E02FA05F3CE1000F120059F
:1007000055F826504E07F70E0F26BE40B543CF10C2
:1007100000F1200646F82750CE1000F1200555F8CC
:10072000265045EA0304CE1000F1200545F8264086
:10073000F0BD02460020138A0B400BB1012000E0FF
:1007400000207047418370470183704700BFFEE778
:1007500000BFFEE77047000070B5002100230F22A4
:10076000C4781CB3174C246804F4E064C4F5E06456
:10077000C4F30721C1F10404E3B20A4144789C4068
:10078000E1B28478144021430C07210E0E4C057809
:100790006155047804F01F050124AC4005786D1103
:1007A000AD0005F1E025C5F8004109E0047804F04A
:1007B0001F050124AC40054D0678761145F826400A
:1007C00070BD00000CED00E000E400E080E100E01E
:1007D00002490143024A1160704700000000FA0517
:1007E0000CED00E010B50446092C2AD2DFE804F035
:1007F00005090D1115191D212500154801F031FEBF
:1008000023E0144801F02DFE1FE0134801F029FEFB
:100810001BE0124801F025FE17E0114801F021FE0F
:1008200013E0104801F01DFE0FE00F4801F019FE23
:100830000BE00E4801F015FE07E00D4801F011FE37
:1008400003E0054801F00DFE00BF00BF10BD000031
:10085000062B0008A62B0008462C0008E62C0008F2
:10086000862D00082A2E0008CE2E00086A2F0008C8
:100870000E30000810B50446092C2AD2DFE804F037
:1008800005090D1115191D212500154801F0C4FD9C
:1008900023E0144801F0C0FD1FE0134801F0BCFD47
:1008A0001BE0124801F0B8FD17E0114801F0B4FD5B
:1008B00013E0104801F0B0FD0FE00F4801F0ACFD6F
:1008C0000BE00E4801F0A8FD07E00D4801F0A4FD83
:1008D00003E0034801F0A0FD00BF00BF10BD000011
:1008E000465500088E560008AE55000816560008FA
:1008F0003E58000806570008D65700086E570008F3
:100900004E54000810B50446072C21D2DFE804F04D
:1009100004080C1014181C00104801F07DFD1BE0A9
:100920000F4801F079FD17E00E4801F075FD13E066
:100930000D4801F071FD0FE00C4801F06DFD0BE07A
:100940000B4801F069FD07E00A4801F065FD03E08E
:10095000024801F061FD00BF00BF10BDB2300008C9
:100960001E3100085A3200088A310008F2310008AE
:10097000C2320008AA3300087047000029B1064AB5
:1009800012680243044B1A6004E0034A126882436F
:10099000014B1A60704700001C38024029B1064A1A
:1009A00012680243044B1A6004E0034A126882434F
:1009B000014B1A60704700002438024029B1064AF2
:1009C00012680243044B1A6004E0034A126882432F
:1009D000014B1A607047000020380240124800683E
:1009E00040F48070104908600F48083000680F49D3
:1009F00008400D49083108600B4800680C49084060
:100A0000094908600846006820F48020086006480C
:100A10000830006820F47D00034908310860002098
:100A2000091D086070470000003802400CC0FF88B4
:100A3000FEFFFEEEF0B50021002200230026002478
:100A40000025374F3F6807F00C0131B1042912D05F
:100A5000082913D00C2934D113E0314F3F1F3F68D0
:100A6000C7F342356F1C4FF0010C0CFA07FC4FEA3C
:100A7000CC37076033E02B4F076030E02A4F076028
:100A80002DE0274F3F6807F47012254F3F6807F4A9
:100A90004003264F07EB92473A78012707EB935321
:100AA0001F4F3F6807F480362EB91E4F5743B7FBE0
:100AB000F3F7076004E01C4F5743B7FBF3F70760F9
:100AC0000DE0174F3F1F3F68C7F342356F1C4FF0D3
:100AD000010C0CFA07FC4FEACC37076000BF00BFDF
:100AE0000F4F3F6807F0F0010909114F7C5C076860
:100AF000E74047600A4F3F6807F4E061090A0C4F7E
:100B00007C5C4768E7408760054F3F6807F46051A9
:100B1000C90A074F7C5C4768E740C760F0BD00002A
:100B2000083802400024F40000127A001D00002062
:100B30002600002010B501460022002300204A11A3
:100B4000012A02D1074C236802E0064C34342368A2
:100B500001F01F02012494401C400CB1012000E070
:100B6000002010BD003802400149086070470000B5
:100B70000000474200B593B001210220FFF7FEFEBE
:100B800001218803FFF70AFF01210806FFF7F6FE9F
:100B90004FF46040119002208DF8480003208DF83A
:100BA000490011A93C48FFF75FFD4FF460413A4806
:100BB000FFF7CAFD05220D213748FFF797FD0522F3
:100BC0000E213548FFF792FD05220F213248FFF72D
:100BD0008DFD4FF48050119001208DF848000320C6
:100BE0008DF8490011A92C48FFF73EFD0020ADF813
:100BF00030004FF48270ADF832000020ADF83400C0
:100C0000ADF83600ADF838004FF40070ADF83A009A
:100C10001020ADF83C000020ADF83E000720ADF8F4
:100C200040000CA91D4800F08AF801211B4800F083
:100C300063F81A480C300190002003900590802042
:100C4000069000200790089009904FF400500A90F9
:100C500000200B9001A91248FFF7E7FC0E208DF849
:100C6000000000208DF801008DF8020001208DF8B1
:100C700003006846FFF770FD1020039040020A90C1
:100C800001A907481430FFF7D0FC012202210448D3
:100C9000FFF7C2FC13B000BD000402400038004062
:100CA0004460024070B50546002405E0601CC4B2F3
:100CB000C82C01DD002070BD02210E4800F031F883
:100CC0000028F3D029460B4800F037F8002405E04F
:100CD000601CC4B2C82C01DD0020ECE701210548EE
:100CE00000F01FF80028F3D0024800F023F8C0B24B
:100CF000E1E700000038004021B1028842F04002E4
:100D0000028004E002884FF6BF731A4002807047E9
:100D10001AB183880B43838002E083888B438380EE
:100D200070470246002013890B400BB1012000E000
:100D3000002070470146888970478181704710B54F
:100D40000022028802F441520B884C8823438C888D
:100D50002343CC8823430C8923434C8923438C8928
:100D60002343CC8923431A430280838B4FF2FF74C1
:100D7000234083830B8A038210BD704710B522483D
:100D800000682249096808441F490860084600684D
:100D90001F49096888422CD21E4800681E498842B3
:100DA00004D10C461D481B49086003E01B4C1A483F
:100DB0001849086021461548006800F0B9F9144840
:100DC000006811490968401A15490860084600681A
:100DD000B0F5805F02D34FF4805001E01048006806
:100DE0000A490860084601680A480068FFF7C4FB22
:100DF00008E0084801680548006800F099F90120FA
:100E00000849087010BD00005C0000205800002058
:100E100048000020500000206800002068100020DA
:100E200060000020560000201CB5002001900090BA
:100E3000FFF7D4FD0120FFF797FE00BF2120FFF749
:100E400079FE0028FAD02E48006840F004002C49B2
:100E500008600846006840F0020008600846006824
:100E600040F0010008602748006840F080502549A4
:100E70000860C8142449086000BF2348406800F097
:100E800010000028F9D11F481C3800681D491C3982
:100E90000860084600680860084600680860084660
:100EA000006820F47D0008600846006840F40800EF
:100EB000086014482438006840F0807011492439D3
:100EC000086000BF0F482438006800F00070002858
:100ED000F8D00C481C38006820F0030009491C3980
:100EE00008600846006840F00300086000BF05483D
:100EF0001C38006800F00C000C28F8D11CBD000064
:100F0000003C0240243802400070004010B500F060
:100F1000CFFA00F058FA01F0B1F900BF08214120E2
:100F200000F0DAFA0028F9D001F040F80D49086025
:100F300008460068B0F5805F02D34FF4805001E0AE
:100F40000848006808490860084809490860002006
:100F5000084908600448016805480068FFF70CFB71
:100F600010BD00004800002058000020680000204C
:100F7000500000205C0000202DE9F04100F098FABC
:100F800000F021FA01F07AF900BF0821412000F0B9
:100F9000A3FA0028F9D001F009F83D49086000BF24
:100FA00080213C4800F01CF90028F9D0FF21394885
:100FB00000F0DDF900BF8021364800F011F900286B
:100FC000F9D0AA21334800F0D2F900250CE000BF87
:100FD0008021304800F004F90028F9D02E48415D06
:100FE0002C4800F0C4F96D1C422DF0DBFFF77EFAAF
:100FF00001F032F90026002400BF2AE0002424E09A
:101000000020FFF74FFE80460020FFF74BFE07460B
:1010100000BF80211F4800F0E3F80028F9D03946CE
:101020001C4800F0A4F90F2000F01CFA00BF80213A
:10103000184800F0D5F80028F9D04146154800F0CE
:1010400096F90F2000F00EFA641CB4F5A07FD7DBF0
:10105000761CF02ED2DB00BF80210E4800F0C0F8D5
:101060000028F9D0BB210B4800F081F90C2000F0DA
:10107000F9F900BF8021074800F0B2F80028F9D044
:10108000CC21044800F073F9FFF726FABDE8F0819F
:101090004800002000380140A6580008042808D164
:1010A0004FF0E021096941F004014FF0E0221161A5
:1010B00007E04FF0E021096921F004014FF0E02240
:1010C000116170477047000010B51548006840F482
:1010D00080701349086012480830006811490840C0
:1010E0000F49083108600E4800680F4908400C4954
:1010F00008600846006820F480200860084808302E
:10110000006820F47D000649083108600020091DB0
:101110000860FFF789FE4FF000600449086010BDC9
:10112000003802400CC0FF88FEFFFEEE08ED00E034
:1011300070B505460C46002600BF0CE000BF8021BC
:10114000064800F04DF80028F9D02178034800F057
:101150000EF9641C761CAE42F0D170BD003801401F
:1011600010B540F22551094800F047F860B140F24F
:101170002551064800F010F8044800F0F3F804493F
:10118000087001200349087010BD000000380140BC
:101190003C0000203D00002010B50022002340F656
:1011A0006A14A14200D100BF0A1201249440A3B2E4
:1011B000DC43048010BD21B1828942F40052828157
:1011C00004E082894DF6FF731A40828170471AB19C
:1011D000838A0B43838202E0838A8B438382704736
:1011E00002460020B1F5007F00D100BF13880B40FC
:1011F0000BB1012000E00020704770B502460024CA
:1012000000230025002040F66A16B14200D100BF3D
:10121000C1F3421501F01F03012606FA03F3012D65
:1012200002D19689334006E0022D02D1168A33405E
:1012300001E0968A33400C12012606FA04F416885F
:10124000344013B10CB1012000E0002070BDF0B5B6
:101250000346002400260025002040F66A17B94204
:1012600000D100BF1846C1F3421401F01F06012748
:1012700007FA06F5012C01D10C3004E0022C01D153
:10128000103000E014301AB107682F43076002E005
:101290000768AF430760F0BD2DE9FF4705460E46DE
:1012A0000024A14600BFA046B08900B100BF2C8A2F
:1012B00024F44054F08804432C82AC8941F20C6041
:1012C0008443B08831890843718908430443AC8161
:1012D000AC8A24F44074B0890443AC826846FFF7BA
:1012E000A9FB1F48854202D1DDF80C9001E0DDF832
:1012F0000890A88900F4004040B109EBC90000EB58
:10130000091031684900B0FBF1F707E009EBC900AB
:1013100000EB091031688900B0FBF1F76420B7FBDE
:10132000F0F004012009642101FB1078A88900F481
:10133000004040B1322000EBC800B0FBF1F000F0FB
:101340000700044308E0322000EB08106421B0FBE2
:10135000F1F000F00F0004432C81BDE8FF8700008E
:101360000038014001468888C0F308007047C1F387
:1013700008028280704700BFFEE700BF704770B56B
:101380000446FFF7B3F8E0B2FFF78CFC0020FFF74C
:1013900089FC0546FFF7A0F8284670BD70B50446E5
:1013A0000D46FFF7A3F80A2000F05CF8E0B2FFF763
:1013B00079FCE8B2FFF776FC0A2000F053F8FFF75B
:1013C0008BF8012070BD10B50121042001F06AF8EE
:1013D00010BD000010B56FF00400FFF75FFE0A4873
:1013E00000680A49B0FBF1F0094908700846007826
:1013F00000EB4001C1EBC0104FF6FF7101EAC000E5
:101400000449088010BD00000000002000127A008E
:1014100036000020380000200146114A12884A4355
:101420004FF0E0235A6100229A611A46126942F095
:1014300001021A6100BF4FF0E022106900F00102C2
:101440001AB100F48032002AF5D04FF0E022126980
:1014500022F001024FF0E0231A6100229A617047E6
:10146000380000200146114A12784A434FF0E02329
:101470005A6100229A611A46126942F001021A6109
:1014800000BF4FF0E022106900F001021AB100F431
:101490008032002AF5D04FF0E022126922F00102DA
:1014A0004FF0E0231A6100229A6170473600002055
:1014B00010B50121042000F0F5FF10BD00BF054A62
:1014C000128802F04002002AF9D0C2B2014B1B1D63
:1014D0001A8070470038014070B506460C46304609
:1014E00000F07CFD05462540284670BD1CB5002651
:1014F0000024002500274FF44070FFF769F9FFF73B
:1015000069FF4FF4612000F0BFFE00F071FDFFF7AE
:1015100031FB14E05521002000F0C4FF002000F052
:101520005DFD0646552E03D1C6A0FEF753FE07E02B
:10153000C8A0FEF74FFE4FF47A70FFF76DFFE9E7A2
:1015400000BF66E06020CA4908700121FF2000F05A
:1015500035FF01A90A2000F0EDFC69460B2000F0E0
:10156000E9FC9DF8040026280ED19DF800004128D2
:1015700003D09DF80000422806D10520BD4908701F
:10158000BDA0FEF727FE45E0C2A0FEF723FE7820AF
:10159000B749087001A943F20A0000F087FC6946C8
:1015A00043F20B0000F082FC9DF80400562803D0A3
:1015B0009DF80000402806D10B20AE490870BEA05F
:1015C000FEF708FE26E0C3A0FEF704FE7820A84937
:1015D000087001A943F20A0000F068FC694643F272
:1015E0000B0000F063FC9DF80400562803D09DF822
:1015F0000000422806D103209E490870BEA0FEF7D5
:10160000E9FD07E0C3A0FEF7E5FD4FF47A70FFF7B0
:1016100003FF97E700BF97480078FEF75FFE97E368
:10162000C5480078012875D10020C3490870C34817
:10163000007807286FD007DC07286DD2DFE800F0BC
:1016400015365781A1C2E200202866D006DC0828A2
:1016500073D0102872D011285ED115E321286ED0E6
:1016600030286DD03128F7D127E38248007805284B
:1016700006D10020FFF7B6F8B1A0FEF7ABFD14E0ED
:101680007C4800780B2806D10020FFF7F3F8B5A0BE
:10169000FEF7A0FD09E077480078032805D1002077
:1016A000FFF730F9B8A0FEF795FD1CE3714800780C
:1016B000052806D10120FFF795F8BCA0FEF78AFDAA
:1016C00014E06C4800780B2806D10120FFF7D2F80F
:1016D000BFA0FEF77FFD09E066480078032805D12A
:1016E0000120FFF70FF9C3A0FEF774FDFBE261488C
:1016F0000078052806D10220FFF774F8C6A0FEF78F
:1017000069FD19E05B4800780B280BD10220FFF738
:10171000B1F803E0E8E285E2E4E2BDE2C7A0FEF74B
:1017200059FD09E053480078032805D10220FFF74E
:10173000E9F8CBA0FEF74EFDD5E289E29EE2B1E2E8
:10174000B5E24C480078052806D10320FFF74AF897
:10175000CCA0FEF73FFD13E0464800780B2806D1E9
:101760000320FFF787F8D0A0FEF734FD08E04148DA
:101770000078032804D1FFF7C5F8D4A0FEF72AFDAE
:10178000B1E23C480078052806D10420FFF72AF88A
:10179000D7A0FEF71FFD14E0364800780B2806D1CD
:1017A0000420FFF767F8DBA0FEF714FD09E03148DD
:1017B0000078032805D10420FFF7A4F8DEA0FEF787
:1017C00009FD90E22B480078052805D1FFF70AF8BB
:1017D000E3A0FEF7FFFC14E0264800780B2806D1B2
:1017E0000520FFF747F8E7A0FEF7F4FC09E02148E1
:1017F0000078032805D10520FFF784F8EAA0FEF75A
:10180000E9FC70E21B480078052806D10620FEF7A7
:10181000E9FFEFA0FEF7DEFC03E2164800780B2894
:1018200006D10620FFF726F8F2A0FEF7D3FCF8E178
:1018300010480078032803D10620FFF763F8EDE194
:10184000EFE10000535049206973207265616479AB
:101850000D0A000053504920636F6D6D756E69630A
:101860006174696F6E206572726F720D0A000000FC
:10187000450000204400002041434B20434D4420BC
:101880004F56323634302064657465637465642E57
:101890000D0A000041434B20434D442043616E2715
:1018A000742066696E64204F5632363430206D6F76
:1018B00064756C65210D0A0041434B20434D442063
:1018C0004F56353634302064657465637465642E14
:1018D0000D0A000041434B20434D442043616E27D5
:1018E000742066696E64204F5635363430206D6F33
:1018F00064756C65210D0A0041434B20434D442023
:101900004F56353634322064657465637465642ED1
:101910000D0A000041434B20434D442043616E2794
:10192000742066696E64204F5635363432206D6FF0
:1019300064756C65210D0A003D0000203C0000200C
:1019400041434B20434D442073776974636820748E
:101950006F204F56323634305F3136307831323086
:101960000D0A000041434B20434D442073776974B6
:10197000636820746F204F56353634305F33323011
:10198000783234300D0A000041434B20434D44204F
:1019900073776974636820746F204F56353634321C
:1019A0005F333230783234300D0A000041434B202F
:1019B000434D442073776974636820746F204F56D9
:1019C000323634305F313736783134340D0A000026
:1019D00041434B20434D44207377697463682074FE
:1019E0006F204F56353634305F33353278323838E1
:1019F0000D0A000041434B20434D44207377697426
:101A0000636820746F204F56353634325F36343079
:101A1000783438300D0A000041434B20434D4420B8
:101A200073776974636820746F204F563236343090
:101A30005F333230783234300D0A000041434B209E
:101A4000434D442073776974636820746F204F5648
:101A5000353634305F363430783438300D0A000093
:101A600041434B20434D442073776974636820746D
:101A70006F204F56353634325F3130323478373656
:101A8000380D0A0041434B20434D4420737769745D
:101A9000636820746F204F56323634305F333532EE
:101AA000783238380D0A000041434B20434D442022
:101AB00073776974636820746F204F5635363430FD
:101AC0005F383030783438300D0A000041434B2005
:101AD000434D442073776974636820746F204F56B8
:101AE000353634325F31323830783936300D0A00CD
:101AF00041434B20434D44207377697463682074DD
:101B00006F204F56323634305F36343078343830C8
:101B10000D0A000041434B20434D44207377697404
:101B2000636820746F204F56353634305F31303261
:101B300034783736380D0A0041434B20434D44205A
:101B400073776974636820746F204F56353634326A
:101B50005F3136303078313230300D0A000000000D
:101B600041434B20434D442073776974636820746C
:101B70006F204F56323634305F3830307836303060
:101B80000D0A000041434B20434D44207377697494
:101B9000636820746F204F56353634305F313238E9
:101BA00030783936300D0A0041434B20434D4420F4
:101BB00073776974636820746F204F5635363432FA
:101BC0005F3230343878313533360D0A000000008A
:101BD00041434B20434D44207377697463682074FC
:101BE0006F204F56323634305F31303234783736EA
:101BF000380D0A0041434B20434D442073776974EC
:101C0000636820746F204F56353634305F3136307C
:101C10003078313230300D0A000000004DA0FEF760
:101C2000D9FA60E055480078052806D10720FEF76C
:101C3000D9FD53A0FEF7CEFA09E0504800780B28F2
:101C400005D10720FEF716FE57A0FEF7C3FA4AE0BB
:101C50004A480078052806D10820FEF7C3FD5CA09D
:101C6000FEF7B8FA09E0454800780B2805D10820AE
:101C7000FEF700FE60A0FEF7ADFA34E00124012576
:101C800067A0FEF7A7FA2EE0012000F0EBFA3B4830
:101C90000078FEF723FB26E00224022569A0FEF768
:101CA00099FA20E0012771A0FEF794FA1BE00324C3
:101CB00003255BA0FEF78EFA15E0002000F0D2FAB3
:101CC0002E480078FEF70AFB812143F6180000F049
:101CD0003FFBA72143F2216000F03AFB6CA0FEF726
:101CE00079FA00E000BF00BF012C0DD1012D02D117
:101CF0000025FFF70BF96B48007800B30020694915
:101D00000870FFF73BF823E0022C19D1022D1FD1F8
:101D10006548007858B12FB154A0FEF75BFA002750
:101D200000240025002060490870FFF7EFF85D48A7
:101D3000007820B100205B490870FFF71FF807E02A
:101D4000032C05D1032D03D100250024FFF714F93E
:101D500066E4000041434B20434D4420737769748F
:101D6000636820746F204F56353634325F32353910
:101D70003278313934340D0A00000000440000206C
:101D800041434B20434D442073776974636820744A
:101D90006F204F56323634305F3132383078313040
:101DA00032340D0A0000000041434B20434D4420D3
:101DB00073776974636820746F204F5635363430FA
:101DC0005F3230343878313533360D0A0000000088
:101DD00041434B20434D44207377697463682074FA
:101DE0006F204F56323634305F31363030783132F2
:101DF00030300D0A0000000041434B20434D442089
:101E000073776974636820746F204F5635363430A9
:101E10005F3235393278313934340D0A0000000030
:101E200041434B20434D442043414D207374617224
:101E3000742073696E676C652073686F6F742E0D04
:101E40000A00000041434B20434D442043414D20B4
:101E5000737461727420766964656F20737472653F
:101E6000616D696E672E0D0A0000000041434B2032
:101E7000434D442043414D2073746F702076696454
:101E8000656F2073747265616D696E672E0D0A004F
:101E900041434B20434D4420536574546F424D5091
:101EA000200D0A00540000205600002070B50446A2
:101EB0000D4600F035F9782000F072F918B900F0FD
:101EC00053F9002070BD1420FFF7CCFA1420FFF75F
:101ED000C9FA201200F064F918B900F045F90020A1
:101EE000F0E71420FFF7BEFAE0B200F059F918B994
:101EF00000F03AF90020E5E71420FFF7B3FA00F00C
:101F000033F91420FFF7AEFA00F00AF9792000F057
:101F100047F918B900F028F90020D3E71420FFF79B
:101F2000A1FA00F099F8287000F0D6F800F01CF93A
:101F30000120C7E770B505460C460A20FFF792FA64
:101F400000F0EEF81848007800F02AF918B900F00F
:101F50000BF9012070BD0A20FFF784FA284600F033
:101F60001FF918B900F000F90220F3E700F0FCF8BF
:101F70000A20FFF777FA00F0D3F80B49097841F00F
:101F8000010000F00DF918B900F0EEF80320E1E7C8
:101F90000A20FFF767FA00F05FF8207000F09CF865
:101FA00000F0E2F80020D5E7450000202DE9F041DF
:101FB0000027422000F012F80446432000F00EF8FB
:101FC0000546442000F00AF800F07F06300440EA9D
:101FD000052040EA04073846BDE8F08170B50446A4
:101FE00004F07F00FFF7CBF90546284670BD0000DE
:101FF0001CB501210220FEF7C1FC4FF400600090E7
:1020000000208DF8040003208DF805006946114872
:10201000FEF72AFB4FF400610E48FEF795FB4FF4E4
:102020008060009001208DF8040069460948FEF7A1
:102030001BFB4FF480610748FEF786FB05480068EC
:1020400020F44000034908600846006840F480001E
:1020500008601CBD0004024070B500241D480068E3
:1020600020F440001B490860084600680860012011
:10207000FFF7F8F908251DE00120FFF7F3F94FF409
:1020800080611448FEF760FB0120FFF7EBF9600662
:10209000040E4FF400610F48FEF74BFB08B1601CC3
:1020A000C4B24FF480610B48FEF74CFB0120FFF7F0
:1020B000D9F96D1E002DDFD10648006820F44000DC
:1020C000044908600846006840F480000860204623
:1020D00070BD00000004024010B54FF400610F48CD
:1020E000FEF732FB0120FFF7BDF94FF480610B488A
:1020F000FEF72AFB0120FFF7B5F94FF4806107488E
:10210000FEF720FB0120FFF7ADF94FF40061034813
:10211000FEF718FB0120FFF7A5F910BD00040240EF
:1021200010B54FF400610F48FEF70EFB0120FFF7DA
:1021300099F94FF480610B48FEF706FB0120FFF789
:1021400091F94FF400610748FEF7FCFA0120FFF710
:1021500089F94FF480610348FEF7F4FA0120FFF794
:1021600081F910BD0004024010B54FF400610B4826
:10217000FEF7E8FA0120FFF775F94FF48061074890
:10218000FEF7E2FA0120FFF76DF94FF40061034812
:10219000FEF7DAFA0120FFF765F910BD00040240EE
:1021A00070B50646002420E006FA04F000F0800036
:1021B00028B14FF400612748FEF7C6FA04E04FF457
:1021C00000612448FEF7BEFA0120FFF74BF94FF4F7
:1021D00080612048FEF7B8FA0120FFF743F94FF479
:1021E00080611C48FEF7AEFA641C082CDCD3194849
:1021F000006820F44000174908600846006808603D
:102200000120FFF72FF94FF480611248FEF79CFA86
:102210000120FFF727F94FF400610E48FEF789FA15
:1022200008B1002500E001254FF480610948FEF760
:1022300089FA0120FFF716F90648006820F44000EB
:10224000044908600846006840F480000860284699
:1022500070BD00000004024010B53C20FEF722FDD6
:1022600010BD000018B90021034A117002E00121DD
:10227000014A1170704700004600002010B502218D
:10228000042000F00FF910BD10B588B004460121FC
:102290000846FEF773FB01218803FEF78FFB4FF41E
:1022A0008060069002208DF81C0003208DF81D0030
:1022B00006A92548FEF7D8F94FF4007006900220D1
:1022C0008DF81C0003208DF81D0000208DF81E00E5
:1022D00001208DF81F0006A91B48FEF7C5F907224B
:1022E00009211948FEF702FA07220A211648FEF7CB
:1022F000FDF925208DF8040000208DF805008DF8EB
:10230000060001208DF8070001A8FEF725FA0294C7
:102310000020ADF80C00ADF80E00ADF81000ADF8DF
:1023200014000C20ADF8120002A90848FEF7B4FF13
:10233000012240F225510548FEF789FF012103489B
:10234000FEF739FF08B010BD000002400038014020
:1023500070B504460D46FFF7E3FE17480078FFF717
:102360001FFF18B9FFF700FF002070BD0520FFF721
:1023700079F8C4F30720FFF713FF18B9FFF7F4FE4D
:102380000020F2E70520FFF76DF8E0B2FFF708FF45
:1023900018B9FFF7E9FE0020E7E70520FFF762F82C
:1023A000E8B2FFF7FDFE18B9FFF7DEFE0020DCE71C
:1023B000FFF7DAFE0120D8E74500002070B504469B
:1023C0000D460520FFF74EF8FFF7AAFE11480078EA
:1023D000FFF7E6FE18B9FFF7C7FE012070BD052024
:1023E000FFF740F8E0B2FFF7DBFE18B9FFF7BCFEDD
:1023F0000220F3E70520FFF735F8E8B2FFF7D0FE3B
:1024000018B9FFF7B1FE0320E8E7FFF7ADFE0020A3
:10241000E4E70000450000202DE9F04107464FF0B9
:1024200000083E460BE03488B57829462046FFF781
:102430008FFF80464FF41670FFF714F8361D4FF6E5
:10244000FF70844201D0012000E00020FF2D01D068
:10245000012100E0002108430028E4D14046BDE806
:10246000F0812DE9F04105464FF0000800260027D5
:102470002C4607E02688678839463046FFF79EFFDE
:102480008046241DFF2E01D0012000E00020FF2FF8
:1024900001D0012100E0002108430028EAD1404694
:1024A000BDE8F08170B504460D4644F08000294631
:1024B000FEF774FF70BDFF0000002C00FF002E002F
:1024C000DF00FF0001003C003200110000000900A5
:1024D00002000400A8001300E500140048002C00CE
:1024E0000C00330078003A0033003B00FB003E0054
:1024F00000004300110016001000390002003500F2
:10250000880022000A003700400023000000340049
:10251000A00006000200060088000700C0000D00B1
:10252000B7000E0001004C0000004A0081002100AD
:1025300099002400400025003800260082005C003D
:10254000000063000000460022000C003A005D001D
:1025500055005E007D005F007D0060005500610059
:102560007000620080007C000500200080002800D0
:1025700030006C0000006D0080006E0000007000F4
:102580000200710094007300C1003D00340012008D
:1025900004005A0057004F00BB0050009C00FF0091
:1025A0000000E5007F00F900C00041002400E000C9
:1025B00014007600FF003300A0004200200043001A
:1025C00018004C0000008700D00088003F00D700B2
:1025D0000300D9001000D3008200C8000800C90021
:1025E00080007C0000007D0000007C0003007D0076
:1025F00048007D0048007C0008007D0020007D0030
:1026000010007D000E009000000091000E0091006F
:102610001A009100310091005A0091006900910068
:10262000750091007E009100880091008F0091005C
:1026300096009100A3009100AF009100C4009100AA
:10264000D7009100E8009100200092000000930064
:1026500006009300E300930003009300030093003F
:10266000000093000200930000009300000093001C
:10267000000093000000930000009300000093000E
:1026800000009600000097000800970019009700CE
:10269000020097000C00970024009700300097007C
:1026A00028009700260097000200970098009700E6
:1026B00080009700000097000000A4000000A80020
:1026C0000000C5001100C6005100BF008000C70017
:1026D0001000B6006600B800A500B7006400B9009D
:1026E0007C00B300AF00B4009700B500FF00B0005D
:1026F000C500B1009400B2000F00C4005C00A60049
:102700000000A7002000A700D800A7001B00A7001A
:102710003100A7000000A7001800A7002000A700B4
:10272000D800A7001900A7003100A7000000A700EB
:102730001800A7002000A700D800A7001900A700D4
:102740003100A7000000A70018007F000000E5008E
:102750001F00E1007700DD007F00C2000E00FF00D7
:102760000000E0000400C000C800C1009600860020
:102770003D005100900052002C0053000000540016
:1027800000005500880057000000500092005A00D9
:1027900050005B003C005C000000D3000400E0003F
:1027A0000000FF00000005000000DA000800D7006C
:1027B0000300E000000005000000FF00FF00FF0034
:1027C00000002C00FF002E00DF00FF0001003C0095
:1027D000320011000000090002000400280013006C
:1027E000E500140048002C000C00330078003A008B
:1027F00033003B00FB003E000000430011001600C8
:102800001000390092003500DA0022001A0037006B
:10281000C300230000003400C00036001A00060088
:1028200088000700C0000D0087000E0041004C002A
:102830000000480000005B000000420003004A0066
:102840008100210099002400400025003800260066
:1028500082005C0000006300000061007000620004
:1028600080007C00050020008000280030006C0003
:1028700000006D0080006E0000007000020071001A
:1028800094007300C10012004000170011001800EE
:102890004300190000001A004B0032000900370005
:1028A000C0004F0060005000A8006D0000003D0017
:1028B000380046003F004F0060000C003C00FF0065
:1028C0000000E5007F00F900C00041002400E000A6
:1028D00014007600FF003300A000420020004300F7
:1028E00018004C0000008700D50088003F00D7008A
:1028F0000300D9001000D3008200C8000800C900FE
:1029000080007C0000007D0000007C0003007D0052
:1029100048007D0048007C0008007D0020007D000C
:1029200010007D000E009000000091000E0091004C
:102930001A009100310091005A0091006900910045
:10294000750091007E009100880091008F00910039
:1029500096009100A3009100AF009100C400910087
:10296000D7009100E8009100200092000000930041
:1029700006009300E3009300050093000500930018
:1029800000009300040093000000930000009300F7
:1029900000009300000093000000930000009300EB
:1029A00000009600000097000800970019009700AB
:1029B000020097000C009700240097003000970059
:1029C00028009700260097000200970098009700C3
:1029D00080009700000097000000C300ED00A400F5
:1029E0000000A8000000C5001100C6005100BF0093
:1029F0008000C7001000B6006600B800A500B70050
:102A00006400B9007C00B300AF00B4009700B500CB
:102A1000FF00B000C500B1009400B2000F00C40078
:102A20005C00C0006400C1004B008C000000860008
:102A30003D00500000005100C800520096005300B5
:102A4000000054000000550000005A00C8005B0060
:102A500096005C000000D3000000C300ED007F0082
:102A60000000DA000000E5001F00E1006700E00060
:102A70000000DD007F000500000012004000D300D0
:102A80000400C0001600C10012008C000000860087
:102A90003D005000000051002C0052002400530063
:102AA000000054000000550000005A002C005B009C
:102AB00024005C000000FF00FF00FF000000050094
:102AC0000000DA001000D7000300DF000000330030
:102AD00080003C004000E100770000000000FF00A3
:102AE000FF00E0001400E1007700E5001F00D700C0
:102AF0000300DA001000E0000000FF000100040005
:102B00000800FF00FF00FF00010012004000170056
:102B1000110018004300190000001A004B00320099
:102B200009004F00CA005000A8005A0023006D00A1
:102B30000000390012003500DA0022001A003700C8
:102B4000C300230000003400C00036001A00060055
:102B500088000700C0000D0087000E0041004C00F7
:102B60000000FF000000E0000400C0006400C1009D
:102B70004B0086003500500092005100C800520002
:102B8000960053000000540000005500000057005C
:102B900000005A0028005B001E005C000000E000FE
:102BA0000000FF00FF00FF000100120040001700BE
:102BB000110018004300190000001A004B003200F9
:102BC00009004F00CA005000A8005A0023006D0001
:102BD0000000390012003500DA0022001A00370028
:102BE000C300230000003400C00036001A000600B5
:102BF00088000700C0000D0087000E0041004C0057
:102C00000000FF000000E0000400C0006400C100FC
:102C10004B0086003500500092005100C800520061
:102C200096005300000054000000550000005700BB
:102C300000005A002C005B0024005C000000E00053
:102C40000000FF00FF00FF0001001200400017001D
:102C5000110018004300190000001A004B00320058
:102C600009004F00CA005000A8005A0023006D0060
:102C70000000390012003500DA0022001A00370087
:102C8000C300230000003400C00036001A00060014
:102C900088000700C0000D0087000E0041004C00B6
:102CA0000000FF000000E0000400C0006400C1005C
:102CB0004B0086003500500089005100C8005200CA
:102CC000960053000000540000005500000057001B
:102CD00000005A0050005B003C005C000000E00077
:102CE0000000FF00FF00FF0001001200400017007D
:102CF000110018004300190000001A004B003200B8
:102D000009004F00CA005000A8005A0023006D00BF
:102D10000000390012003500DA0022001A003700E6
:102D2000C300230000003400C00036001A00060073
:102D300088000700C0000D0087000E0041004C0015
:102D40000000FF000000E0000400C0006400C100BB
:102D50004B0086003500500089005100C800520029
:102D6000960053000000540000005500000057007A
:102D700000005A0058005B0048005C000000E000C2
:102D80000000FF00FF00FF00010011000100120021
:102D900000001700110018007500320036001900FD
:102DA00001001A00970003000F00370040004F0099
:102DB000BB0050009C005A0057006D0080003D0091
:102DC0003400390002003500880022000A00370074
:102DD00040003400A000060002000D00B7000E0005
:102DE0000100FF000000E0000400C000C800C100B6
:102DF000960086003D00500089005100900052006E
:102E00002C005300000054000000550088005700BB
:102E100000005A00A0005B0078005C000000D300B6
:102E20000400E0000000FF00FF00FF0001001100AF
:102E30000100120000001700110018007500320098
:102E40003600190001001A00970003000F00370038
:102E500040004F00BB0050009C005A0057006D001E
:102E600080003D0034003900020035008800220057
:102E70000A00370040003400A000060002000D00E8
:102E8000B7000E000100FF000000E0000400C000D9
:102E9000C800C1009600860035005000890051002E
:102EA000900052002C005300000054000000550018
:102EB0008800570000005A00C8005B0096005C00C4
:102EC0000000D3000200E0000000FF00FF00FF0050
:102ED000010011000100120000001700110018008D
:102EE000750032003600190001001A009700030037
:102EF0000F00370040004F00BB0050009C005A00FC
:102F000057006D0080003D0034003900020035009C
:102F1000880022000A00370040003400A0000600AC
:102F200002000D00B7000E000100FF000000C0000D
:102F3000C800C10096008C00000086003D005000D3
:102F400000005100900052002C005300000054007B
:102F50000000550088005A0000005B00C0005C00C3
:102F60000100D3000200FF00FF00FF00010011007C
:102F70000100120000001700110018007500320057
:102F80003600190001001A00970003000F003700F7
:102F900040004F00BB0050009C005A0057006D00DD
:102FA00080003D0034003900020035008800220016
:102FB0000A00370040003400A000060002000D00A7
:102FC000B7000E000100FF000000E0000400C00098
:102FD000C800C100960086003D005000000051006E
:102FE000900052002C0053000000540000005500D7
:102FF0008800570000005A0040005B00F0005C00B1
:103000000100D3000200E0000000FF00FF00FF000D
:10301000010011000100120000001700110018004B
:10302000750032003600190001001A0097000300F5
:103030000F00370040004F00BB0050009C005A00BA
:1030400057006D0080003D0034003900020035005B
:10305000880022000A00370040003400A00006006B
:1030600002000D00B7000E000100FF000000E000AC
:103070000400C000C800C100960086003D0050005A
:1030800000005100900052002C005300000054003A
:10309000000055008800570000005A0090005B00B7
:1030A0002C005C000500D3000200E0000000FF00DF
:1030B000FF00003801000138A80002380000033882
:1030C0000A0004380A0005382000063807000738CF
:1030D000980008380100093840000A3800000B3811
:1030E000F0000C380C000D3880000E3807000F3847
:1030F000D00001507F0080560000815600008256AB
:103100000A0083562000845600008556000086562B
:103110000700875698000138B000FFFFFF00003815
:1031200001000138A8000238000003380A00043802
:103130000A000538200006380700073898000838CC
:103140000200093880000A3801000B38E0000C3812
:103150000C000D3880000E3807000F38D0000150E9
:103160007F00805600008156000082560A00835678
:1031700020008456000085560000865607008756BA
:1031800098000138B000FFFFFF000038010001384F
:10319000B0000238000003380A0004380A0005387D
:1031A000200006380700073898000838050009385D
:1031B00000000A3803000B38C0000C380C000D3832
:1031C00080000E3807000F38D00001507F00805675
:1031D00000008156000082560A0083562000845663
:1031E0000000855600008656070087569800FFFFAE
:1031F000FF00003801000138B00002380000033839
:103200000A0004380A00053820000638070007388D
:10321000980008380600093840000A3804000B38C6
:10322000B0000C380C000D3880000E3807000F3845
:10323000D00001507F008056000081560000825669
:103240000A008356200084560000855600008656EA
:10325000070087569800FFFFFF0000380100013883
:10326000B0000238000003380A0004380A000538AC
:10327000200006380700073898000838040009388D
:1032800000000A3803000B3800000C380C000D3821
:1032900080000E3807000F38D00001507F008056A4
:1032A00000008156000082560A0083562000845692
:1032B0000000855600008656070087569800FFFFDD
:1032C000FF00003801000138B00002380000033868
:1032D0000A0004380A0005382000063807000738BD
:1032E000980008380800093800000A3806000B3832
:1032F00000000C380C000D3880000E3807000F3825
:10330000D0001038C200153844001838A8002438FE
:10331000010027380A00003A78000D3A10000E3AF2
:103320000D00003A78000B4635001D4700001C4791
:10333000500082560A0083562000865607008756A2
:1033400098009B5800009A58C0009B5800009A585B
:10335000C00002300C0002300000004332000B4677
:10336000350002300C000230000013470200004616
:103370008000214702001C474000084400000C4622
:103380002200153804001838C8001F5000000250F1
:10339000E0000A440100024490001138F00018389F
:1033A000A80021361000FFFFFF000038010001389F
:1033B000B0000238000003380A0004380A0005385B
:1033C0002000063807000738980008380A00093836
:1033D00020000A3807000B3898000C380C000D3814
:1033E00080000E3807000F38D00001507F00805653
:1033F00000008156000082560A0083562000845641
:103400000000855600008656070087569800FFFF8B
:10341000FF00003805000138F800023803000338C7
:103420005C00043801000538440006380000073805
:10343000F00008380100093840000A3800000B3855
:10344000F0000C380C000D3880000E3807000F38E3
:10345000D00001507F008056000081560000825647
:1034600001008356440084560000855600008656AD
:1034700000008756F300FFFFFF0003319300083080
:10348000820017307F001830FC001038C20015365B
:10349000F000003000000130000002305C0003301A
:1034A00000000430FF000530FF0006304300073005
:1034B000370011300800103010000C46220015387B
:1034C00004000C37A0000236FC001236FF00343630
:1034D000C0001336000005367C0021360900223674
:1034E0006000043640000336A70003362700004082
:1034F00021001D4022000036540005360400063627
:103500003F00013C800000504F00205004008151DA
:10351000790082510000855122009751010001502D
:10352000FF0000550A000455000005557F0080503B
:1035300008000E301800104600001D47050008471F
:10354000060008380200093880000A3801000B38EC
:10355000E0000E3807000F38D0001F500000005068
:103560004F0000433000033507000135730002357A
:1035700080000B35000003350700243811000135A9
:103580001E00023580000B357F000C380C000D3812
:1035900080000E3803000F38E8000D3A04000E3AA0
:1035A00003001838C1000537DB000A3781000138F5
:1035B0008000213687000138500003380800273882
:1035C0000800103840000438050005380000825615
:1035D000050083560000063803000738C0008656F1
:1035E00003008756BC00003A78001A3A0500133AE7
:1035F0003000183A0000193A7C00083A1200093AE3
:10360000C0000A3A0F000B3AA0000C3507000D3538
:10361000D0000035000001350000023500000A35F9
:1036200000000B350000033500008A5202008B5267
:1036300004008C5208008D5208008E5208008F52F0
:1036400010009052100092520000935202009452C7
:1036500000009552020096520000975202009852C4
:103660000000995202009A5200009B5202009C52A4
:1036700000009D5202009E5200009F520200303016
:103680000B00023A0000033A7D00043A0000143AAD
:103690000000153A7D00163A0000003A7800083A1A
:1036A0000900093A60000A3A07000B3AD0000D3AC7
:1036B00008000E3A0600935170009B5804009A5877
:1036C000C5001E402000014042001C4004008A52F8
:1036D00001008B5204008C5208008D5210008E5253
:1036E00020008F52280090523000925200009352D6
:1036F0000100945200009552040096520000975227
:10370000080098520000995210009A5200009B52F3
:1037100020009C5200009D5228009E5200009F52A3
:103720003000825200000053000001532000025379
:10373000000003537C000C5300000D530C000E538B
:1037400020000F53800010532000115380000853B5
:103750002000095340000453000005533000065375
:10376000000007538000145308001553200019531C
:103770003000165310001753000018530200025473
:103780003F0003540000063400008051FF008151C7
:10379000520082511100835114008451250085513B
:1037A000240086510600875108008851080089517D
:1037B0007C008A5160008B51B2008C51B2008D5157
:1037C00044008E513D008F51580090514600915158
:1037D000F80092510400935170009451F0009551FB
:1037E000F00096510300975101009851040099513F
:1037F00012009A5104009B5100009C5106009D51FB
:1038000082009E5100002550800083554000845561
:103810004000805502000050CF00103710003236B3
:103820005100023710000337B200043718000B377D
:1038300040000D37030031360100323652000636A3
:1038400024002036960085570700133A30000036D2
:1038500052000436480006361B000D370B000F37A8
:10386000C00009370100233800000750000009504C
:10387000000011500000135000009E5100008650BF
:1038800000008750000088500000895000002B3055
:10389000000008380100093840000A3800000B38E1
:1038A000F000003A78000150FF0083555000845525
:1038B000500080550200013C8000003C040000588C
:1038C0004800015831000258210003581B000458D9
:1038D0001A0005581E0006582900075838000858D5
:1038E0002600095817000A5811000B580E000C58F2
:1038F0000D000D580E000E5813000F581A001058E6
:10390000150011580D0012580800135805001458DE
:103910000400155805001658090017580D001858CE
:10392000110019580A001A5804001B5800001C58AE
:1039300000001D5801001E5806001F58090020589D
:10394000120021580B00225804002358000024586C
:103950000000255801002658060027580A0028585C
:10396000170029580F002A5809002B5806002C5818
:1039700005002D5806002E580A002F580E0030580A
:10398000280031581A003258110033580E003458AC
:103990000E0035580F003658150037581D0038589E
:1039A0006E00395839003A5827003B581F003C58E0
:1039B0001E003D5823003E582F003F5841004058FC
:1039C0000E0041580C0042580D0043580C0044585A
:1039D0000C0045580C0046580C0047580C0048583D
:1039E0000D0049580E004A580E004B580A004C581A
:1039F0000E004D580E004E5810004F5810005058F1
:103A0000110051580A0052580F0053580E005458D4
:103A10001000555810005658100057580A005858B2
:103A20000E0059580E005A580F005B580F005C5892
:103A30000F005D580A005E5809005F580D0060587D
:103A40000C0061580B0062580D0063580700645861
:103A50001700655814006658180067581800685811
:103A60001600695812006A581B006B581A006C58EF
:103A700016006D5816006E5818006F581F007058C9
:103A80001C00715816007258100073580F007458BB
:103A9000130075581C0076581E0077581700785888
:103AA0001100795811007A5814007B581E007C5878
:103AB0001C007D581C007E581A007F581A00805840
:103AC0001B0081581F008258140083581A00845824
:103AD0001D0085581E0086581A0087581A0080510C
:103AE000FF00815152008251110083511400845112
:103AF00025008551240086511400875114008851F7
:103B00001400895169008A5160008B51A2008C51C8
:103B10009C008D5136008E5134008F5154009051CD
:103B20004C009151F800925104009351700094514F
:103B3000F0009551F0009651030097510100985103
:103B4000050099512F009A5104009B5100009C518F
:103B500006009D51A0009E51A0008A5200008B5289
:103B600001008C5204008D5208008E5210008F52BA
:103B70002000905230009252000093520000945264
:103B8000000095520100965200009752040098528E
:103B90000000995208009A5200009B5210009C525B
:103BA00000009D5220009E5200009F523000825221
:103BB0000000005300000153200002530000035393
:103BC0007C000C5300000D5310000E5320000F53C7
:103BD0008000105320001153800008532000095327
:103BE0004000045300000553300006530000075303
:103BF0008000145308001553200019533000165349
:103C00001000175300001853020080530100815325
:103C100000008253000083531F008453000085532B
:103C20000600865300008753000088530000895324
:103C3000E1008A5300008B532B008C5300008D53FE
:103C400000008E5300008F531000905300009153DA
:103C5000B300925300009353A6009453080080547D
:103C60000C008154180082542F0083545500845452
:103C700064008554710086547D0087548700885401
:103C8000910089549A008A54AA008B54B8008C542D
:103C9000CD008D54DD008E54EA008F541D009054E9
:103CA0000500915400009254040093542000945451
:103CB000030095546000965402009754B80098543D
:103CC0000200995486009A5402009B545B009C5455
:103CD00002009D543B009E5402009F541C00A054BF
:103CE0000200A1540400A2540100A354ED00A45406
:103CF0000100A554C500A6540100A754A500A8546E
:103D00000100A9546C00AA540100AB544100AC540A
:103D10000100AD542000AE540000AF541600B05462
:103D20000100B1542000B2540000B3541000B45448
:103D30000000B554F000B6540000B754DF00025440
:103D40003F000354000000551000025500000355C9
:103D500006000455000005557F00255080000F3AED
:103D60003000103A28001B3A30001E3A2800113A61
:103D700061001F3A10008856FD008956DF008A5600
:103D8000FE008B56EF008C56FE008D56EF008E56CF
:103D9000AA008F56AA00FFFFFF000335070000307E
:103DA0000000013000000230000003300000053048
:103DB000FF000630FF0007303F000C3507000D35CF
:103DC000D0000236E4001236AC001336440021362F
:103DD000270022360800233622000436600005370B
:103DE000DA000A37800001388A0003380A000438F4
:103DF0000A00053820000638070007389800083800
:103E00000A00093820000A3807000B3898000C38DF
:103E10000C000D3880000E3807000F38D000103825
:103E2000C200153844001838C8002438010027386B
:103E30000A00003A78000D3A10000E3A0D00103AD0
:103E400032001B3A3C001E3A3200113A80001F3A01
:103E50002000003A78000B4635001D47000013474C
:103E600003001C47500082560A00835620008656E5
:103E700007008756980001504F009B5800009A5841
:103E8000C000074408009B5800009A58C000023048
:103E90000C000230000003350000255080000F3A6E
:103EA0004800103A40001B3A4A001E3A3E00113AC0
:103EB00070001F3A2000FFFFFF000331930008301D
:103EC000820017307F001830FC001038C200153611
:103ED000F00000300000013000000230000003302C
:103EE00000000430FF0030300B00113008001030AB
:103EF00010000436600022366000213609000937C0
:103F00000000004021001D4022000036540005360C
:103F1000040006363F00013C80000D3022002336AD
:103F2000220000504F00205004008151790082513E
:103F30000000855122009751010000550A000455E8
:103F4000000005557F00805008000E301800104614
:103F500000001D470500084706000C37A000083880
:103F60000A00093820000A3807000B3898000C387E
:103F70000C000D3880000E3807000F38D00087562F
:103F800094001F50000000504F000150CF0000432C
:103F90003000004330000B4635001D470000023062
:103FA0000C0002300000134703001C47500021475B
:103FB0000200024490000C462200153844000335EC
:103FC000070001357300023580000B3500001838FA
:103FD000C8000138880024381100003A78001A3AE5
:103FE0000400133A3000183A0000193A7C00083AED
:103FF0001200093AC0000A3A0F000B3AA0000C3533
:1040000007000D35D0000D3A08000E3A06000035C5
:10401000000001350000023500000A3500000B35B4
:1040200000000335000030300B00023A0000033A74
:104030007D00043A0000143A0000153A7D00163A5B
:104040000000003A7800083A0900093A60000A3A8C
:1040500007000B3AD0000D3A10000E3A0D0007444D
:104060000400935170009B5800009A58C0001E40F5
:104070002000014042001C4006002538AC002738D3
:104080000C0002543F00035400000634000080512D
:10409000FF0081515200825111008351140084515C
:1040A000250085512400865106008751080088515B
:1040B000080089517C008A5160008B51B2008C51FC
:1040C000B2008D5144008E513D008F5158009051E7
:1040D00046009151F80092510400935170009451A0
:1040E000F0009551F000965103009751010098514E
:1040F0000400995112009A5104009B5100009C51F8
:1041000006009D5182009E5100002550800083557D
:10411000400084554000805502000050CF00103709
:10412000100032365100023710000337B200043756
:1041300018000B3740000D370300313601003236CE
:104140005200063624002036960085570700133AA1
:104150003000003652000436480006361B000D378A
:104160000B000F37C000093701002338000007504B
:1041700000000950000011500000135000009E5133
:1041800000008650000087500000885000008950D1
:1041900000002B30000003350700113007000C35FC
:1041A00004000D35580001388A0003380A0004382D
:1041B0000700053880000638040007383800083842
:1041C0000700093880000A3804000B3838000C3822
:1041D00009000D38D6000E3804000F3858001C387E
:1041E00011001D38BA001E3804001F38480020385E
:1041F000040021381800083A1400093AE0000A3A8D
:1042000011000B3A60000D3A04000E3A030082568A
:104210000700835660008656040087561C00015034
:104220007F0003350000103010000150FF0083555F
:1042300050008455500080550200013C8000003C35
:10424000040000584800015831000258210003586A
:104250001B0004581A0005581E000658290007586C
:10426000380008582600095817000A5811000B5842
:104270000E000C580D000D580E000E5813000F586C
:104280001A001058150011580D0012580800135844
:104290000500145804001558050016580900175851
:1042A0000D001858110019580A001A5804001B581C
:1042B00000001C5800001D5801001E5806001F5821
:1042C00009002058120021580B00225804002358DE
:1042D00000002458000025580100265806002758E1
:1042E0000A002858170029580F002A5809002B588F
:1042F00006002C5805002D5806002E580A002F588D
:104300000E003058280031581A0032581100335826
:104310000E0034580E0035580F0036581500375827
:104320001D0038586E00395839003A5827003B585C
:104330001F003C581E003D5823003E582F003F5898
:10434000410040580E0041580C0042580D0043589F
:104350000C0044580C0045580C0046580C004758B7
:104360000C0048580D0049580E004A580E004B5892
:104370000A004C580E004D580E004E5810004F5871
:1043800010005058110051580A0052580F0053584D
:104390000E00545810005558100056581000575829
:1043A0000A0058580E0059580E005A580F005B5812
:1043B0000F005C580F005D580A005E5809005F58F6
:1043C0000D0060580C0061580B0062580D006358D6
:1043D000070064581700655814006658180067589D
:1043E000180068581600695812006A581B006B586C
:1043F0001A006C5816006D5816006E5818006F5849
:104400001F0070581C007158160072581000735825
:104410000F007458130075581C0076581E0077580A
:10442000170078581100795811007A5814007B58F9
:104430001E007C581C007D581C007E581A007F58B6
:104440001A0080581B0081581F008258140083589E
:104450001A0084581D0085581E0086581A00875877
:104460001A008051FF008151520082511100835186
:104470001400845125008551240086511400875171
:10448000140088511400895169008A5160008B51D1
:10449000A2008C519C008D5136008E5134008F51FA
:1044A000540090514C009151F800925104009351E6
:1044B00070009451F0009551F0009651030097510F
:1044C00001009851050099512F009A5104009B5109
:1044D00000009C5106009D51A0009E51A0008A52F0
:1044E00000008B5201008C5204008D5208008E5245
:1044F00010008F52200090523000925200009352D0
:10450000000094520000955201009652000097520C
:10451000040098520000995208009A5200009B52E1
:1045200010009C5200009D5220009E5200009F529D
:10453000300082520000005300000153200002535B
:10454000000003537C000C5300000D5310000E5369
:1045500020000F5380001053200011538000085397
:104560002000095340000453000005533000065357
:1045700000000753800014530800155320001953FE
:1045800030001653100017530000185302008053D8
:104590000100815300008253000083531F008453A5
:1045A000000085530600865300008753000088539F
:1045B00000008953E1008A5300008B532B008C5379
:1045C00000008D5300008E5300008F531000905355
:1045D00000009153B300925300009353A6009453EC
:1045E000080080540C008154180082542F0083541A
:1045F0005500845464008554710086547D008754AE
:1046000087008854910089549A008A54AA008B54D8
:10461000B8008C54CD008D54DD008E54EA008F54C8
:104620001D009054050091540000925404009354CE
:10463000200094540300955460009654020097544F
:10464000B80098540200995486009A5402009B5472
:104650005B009C5402009D543B009E5402009F54FA
:104660001C00A0540200A1540400A2540100A35451
:10467000ED00A4540100A554C500A6540100A754A0
:10468000A500A8540100A9546C00AA540100AB5421
:104690004100AC540100AD542000AE540000AF54B2
:1046A0001600B0540100B1542000B2540000B354BD
:1046B0001000B4540000B554F000B6540000B754D4
:1046C000DF0002543F000354000000551000025563
:1046D0000000035506000455000005557F002550D5
:1046E00080000F3A3000103A28001B3A30001E3A82
:1046F0002800113A61001F3A10008856FD008956C3
:10470000DF008A56FE008B56EF008C56FE008D5659
:10471000EF008E56AA008F56AA00103000001838FD
:10472000A80021362700FFFFFF0003319300083067
:10473000820017307F001830FC001038C200153698
:10474000F0000030000001300000023000000330B3
:1047500000000430FF0030302B0011300800103012
:104760001000043660002236600021360900093747
:104770000000004021001D40220000365400053694
:10478000040006363F00013C80000D302200233635
:10479000220000504F0020500400815179008251C6
:1047A0000000855122009751010000550A00045570
:1047B000000005557F00805008000E30180010469C
:1047C00000001D470500084706000C37A000083808
:1047D0000A00093820000A3807000B3898000C3806
:1047E0000C000D3880000E3807000F38D0008756B7
:1047F00094001F50000000504F000150CF000043B4
:104800003000004330000B4635001D4700000230E9
:104810000C0002300000134703001C4750002147E2
:104820000200024490000C46220015384400033573
:10483000070001357300023580000B350000183881
:10484000C8000138880024381100003A78001A3A6C
:104850000400133A3000183A0000193A7C00083A74
:104860001200093AC0000A3A0F000B3AA0000C35BA
:1048700007000D35D0000D3A08000E3A060000354D
:10488000000001350000023500000A3500000B353C
:1048900000000335000030302B00023A0000033ADC
:1048A0007D00043A0000143A0000153A7D00163AE3
:1048B0000000003A7800083A0900093A60000A3A14
:1048C00007000B3AD0000D3A10000E3A0D000744D5
:1048D0000400935170009B5800009A58C0001E407D
:1048E0002000014042001C4006002538AC0027385B
:1048F0000C0002543F000354000006340000255011
:1049000080008355400084554000805502000050CF
:10491000CF00103710003236510002371000033735
:10492000B200043718000B3740000D370300313652
:104930000100323652000636240020369600855794
:104940000700133A3000003652000436480006369D
:104950001B000D370B000F37C0000937010023384B
:1049600000000750000009500000115000001350D3
:1049700000009E51000086500000875000008850C3
:104980000000895000002B30000003350700113073
:1049900008000C3502000D35E4002136C9000A3745
:1049A0008100033808000438050005380000063887
:1049B00002000738D00008380500093800000A381E
:1049C00002000B38D0000C3808000D3872000E3889
:1049D00002000F38E4001038C0001838C9001C3835
:1049E00010001D38A0001E3805001F38B000203808
:1049F00000002138000024381100083A1B00093A51
:104A0000C0000A3A17000B3A20000D3A02000E3A95
:104A100001001C40040082560500835600008656A3
:104A200002008756CC0001507F009B5806009A5820
:104A3000C50003350000103010000150FF00835501
:104A400050008455500080550200013C8000003C1D
:104A50000400005848000158310002582100035852
:104A60001B0004581A0005581E0006582900075854
:104A7000380008582600095817000A5811000B582A
:104A80000E000C580D000D580E000E5813000F5854
:104A90001A001058150011580D001258080013582C
:104AA0000500145804001558050016580900175839
:104AB0000D001858110019580A001A5804001B5804
:104AC00000001C5800001D5801001E5806001F5809
:104AD00009002058120021580B00225804002358C6
:104AE00000002458000025580100265806002758C9
:104AF0000A002858170029580F002A5809002B5877
:104B000006002C5805002D5806002E580A002F5874
:104B10000E003058280031581A003258110033580E
:104B20000E0034580E0035580F003658150037580F
:104B30001D0038586E00395839003A5827003B5844
:104B40001F003C581E003D5823003E582F003F5880
:104B5000410040580E0041580C0042580D00435887
:104B60000C0044580C0045580C0046580C0047589F
:104B70000C0048580D0049580E004A580E004B587A
:104B80000A004C580E004D580E004E5810004F5859
:104B900010005058110051580A0052580F00535835
:104BA0000E00545810005558100056581000575811
:104BB0000A0058580E0059580E005A580F005B58FA
:104BC0000F005C580F005D580A005E5809005F58DE
:104BD0000D0060580C0061580B0062580D006358BE
:104BE0000700645817006558140066581800675885
:104BF000180068581600695812006A581B006B5854
:104C00001A006C5816006D5816006E5818006F5830
:104C10001F0070581C00715816007258100073580D
:104C20000F007458130075581C0076581E007758F2
:104C3000170078581100795811007A5814007B58E1
:104C40001E007C581C007D581C007E581A007F589E
:104C50001A0080581B0081581F0082581400835886
:104C60001A0084581D0085581E0086581A0087585F
:104C70001A008051FF00815152008251110083516E
:104C80001400845125008551240086511400875159
:104C9000140088511400895169008A5160008B51B9
:104CA000A2008C519C008D5136008E5134008F51E2
:104CB000540090514C009151F800925104009351CE
:104CC00070009451F0009551F000965103009751F7
:104CD00001009851050099512F009A5104009B51F1
:104CE00000009C5106009D51A0009E51A0008A52D8
:104CF00000008B5201008C5204008D5208008E522D
:104D000010008F52200090523000925200009352B7
:104D100000009452000095520100965200009752F4
:104D2000040098520000995208009A5200009B52C9
:104D300010009C5200009D5220009E5200009F5285
:104D40003000825200000053000001532000025343
:104D5000000003537C000C5300000D5310000E5351
:104D600020000F538000105320001153800008537F
:104D7000200009534000045300000553300006533F
:104D800000000753800014530800155320001953E6
:104D900030001653100017530000185302008053C0
:104DA0000100815300008253000083531F0084538D
:104DB0000000855306008653000087530000885387
:104DC00000008953E1008A5300008B532B008C5361
:104DD00000008D5300008E5300008F53100090533D
:104DE00000009153B300925300009353A6009453D4
:104DF000080080540C008154180082542F00835402
:104E00005500845464008554710086547D00875495
:104E100087008854910089549A008A54AA008B54C0
:104E2000B8008C54CD008D54DD008E54EA008F54B0
:104E30001D009054050091540000925404009354B6
:104E40002000945403009554600096540200975437
:104E5000B80098540200995486009A5402009B545A
:104E60005B009C5402009D543B009E5402009F54E2
:104E70001C00A0540200A1540400A2540100A35439
:104E8000ED00A4540100A554C500A6540100A75488
:104E9000A500A8540100A9546C00AA540100AB5409
:104EA0004100AC540100AD542000AE540000AF549A
:104EB0001600B0540100B1542000B2540000B354A5
:104EC0001000B4540000B554F000B6540000B754BC
:104ED000DF0002543F00035400000055100002554B
:104EE0000000035506000455000005557F002550BD
:104EF00080000F3A3000103A28001B3A30001E3A6A
:104F00002800113A61001F3A10008856FD008956AA
:104F1000DF008A56FE008B56EF008C56FE008D5641
:104F2000EF008E56AA008F56AA001838A800213626
:104F30002700FFFFFF004047200050406E00514017
:104F40008F00083042000331030017307F00183013
:104F5000FF002C3002000831010030362E003236BE
:104F6000E200333623002136E0000437A000033787
:104F70005A0015377800173701000B3760000537E6
:104F80001A00053902000639100001390A003137CC
:104F9000120000360800013633002D306000203644
:104FA00052001B3720001C475000183A0000193AE5
:104FB000F80035361C003436400022360100043C2F
:104FC0002800053C9800063C0000073C0800083C0F
:104FD0000000093C1C000A3C9C000B3C40002038AF
:104FE000410021380100003800000138000002387B
:104FF00000000338040004380A0005383F00063872
:10500000070007389B0008380500093800000A38F7
:1050100003000B38C000103800001138100012389F
:1050200000001338060014383100153831003430D0
:105030001A00353021003630460037301300383042
:105040000000393000000C3807000D3868000E38B9
:1050500003000F38D800013CB400003C0400083ABB
:105060000000093A93000E3A06000A3A00000B3A93
:105070007B000D3A0800003A3C00023A0500033A72
:10508000C400143A0500153AC40018360000123660
:10509000290008376400093752000C37030001402B
:1050A0000200044002000030000002301C00043006
:1050B000FF000630C3000E3058002E3000000043C1
:1050C00030001F50000013470300074404000B4644
:1050D00035000C462200243801000150A30006349C
:1050E000010000340600013480000234040003345F
:1050F000000004340600053400008051FF00815197
:10510000F200825100008351140084512500855122
:1051100024008651160087511600885116008951C7
:1051200062008A5162008B51F0008C51B2008D51A7
:1051300050008E5130008F513000905150009151ED
:10514000F80092510400935170009451F000955171
:10515000F0009651030097510100985104009951B5
:1051600012009A5104009B5100009C5106009D5171
:1051700082009E51380081531E0082535B0083538E
:105180001400845306008553820086538800875399
:105190007C008853600089531C008A5301008B53A4
:1051A0009800005308000153300002533F0003539E
:1051B000100004530800055330000653180007532D
:1051C0002800095308000A5330000B5304000C5305
:1051D000060080540100815406008254120083545A
:1051E000240084544A00855458008654650087542E
:1051F000720088547D00895488008A5492008B5430
:10520000A3008C54B2008D54C8008E54DD008F541E
:10521000F0009054150080550600835540008455D9
:105220002000895510008A5500008B55F800005069
:10523000A700005820000158190002581700035811
:105240001600045818000558210006580F0007588A
:105250000A0008580700095807000A580A000B58A6
:105260000C000C580A000D5803000E5801000F588E
:105270000100105803001158090012580A00135871
:105280000300145801001558010016580300175860
:1052900008001858100019580A001A5806001B5820
:1052A00006001C5808001D580E001E5822001F58EA
:1052B00018002058130021581200225816002358B5
:1052C0001E002458640025582A0026582C00275810
:1052D0002A002858460029582A002A5826002B5808
:1052E00024002C5826002D582A002E5828002F580C
:1052F00042003058400031584200325808003358BC
:1053000028003458260035582400365826003758CF
:105310002A003858440039584A003A582C003B5863
:105320002A003C5846003D58CE0088562200895637
:1053300022008A5642008B5624008C5642008D561D
:1053400024008E5622008F562200255000000F3A6E
:105350003000103A28001B3A30001E3A2800113A5B
:1053600061001F3A100005401A00063400000335A2
:10537000000008300200FFFFFF003530110036301A
:105380004600073C0800203841002138010014384D
:1053900031001538310000380000013800000238B3
:1053A00000000338040004380A0005383F000638BE
:1053B000070007389B0008380200093880000A38C7
:1053C00001000B38E0000C3807000D3868000E387B
:1053D00003000F38D80013380600183600001236C4
:1053E0002900093752000C370300023A1700033A2C
:1053F0001000143A1700153A100004400200023061
:105400001C000630C30013470300074404000B468A
:1054100035000C4622003748220024380200015093
:10542000A30003350000083002003530410040473A
:1054300021000043610008380100093840000A38A3
:1054400000000B38F0001F500100FFFFFF00203864
:105450004000213826001438110015381100033897
:10546000000007389F0008380A00093820000A3871
:1054700007000B3898000C380B000D381C000E3854
:1054800007000F38B0001338040018360400123635
:105490004B0008376400093712000C370000023A4D
:1054A0000700033AB0000E3A06000D3A0800143A1D
:1054B0000700153AB0000140020004400600023027
:1054C00000000630FF00243804000150830036300D
:1054D00069003530310005401A00FFFFFF00003839
:1054E00000000138000002380000033800000438D2
:1054F0000A0005383F000638070007389F000838C3
:105500000A00093820000A3807000B3898000C38C8
:105510000C000D3880000E3807000F38D000015005
:10552000A300805600008156000082560A00835670
:1055300020008456000085560000865607008756D6
:105540009800FFFFFF00003800000138000002381B
:1055500000000338000004380A0005383F00063810
:10556000070007389F0008380100093840000A3852
:1055700000000B38F0000C380C000D3880000E389D
:1055800007000F38D0000150A3008056000081565C
:10559000000082560A00835620008456000085567B
:1055A00000008656070087569800FFFFFF0000386E
:1055B0000000013800000238000003380000043801
:1055C0000A0005383F000638070007389F000838F2
:1055D0000200093880000A3801000B38E0000C385E
:1055E0000C000D3880000E3807000F38D000015035
:1055F000A300805600008156000082560A008356A0
:105600002000845600008556000086560700875605
:105610009800FFFFFF00003800000138000002384A
:1056200000000338000004380A0005383F0006383F
:10563000070007389F0008380300093820000A389F
:1056400001000B38E0000C380C000D3880000E38DB
:1056500007000F38D0001038000011381000123841
:105660000100133848000150A30080560000815605
:10567000000082560A00835620008456000085569A
:1056800000008656070087569800FFFFFF0000388D
:105690000000013800000238000003380000043820
:1056A0000A0005383F000638070007389F00083811
:1056B0000100093860000A3801000B3820000C385E
:1056C0000C000D3880000E3807000F38D00010385D
:1056D000000011381000123800001338700001501B
:1056E000A300805600008156000082560A008356AF
:1056F0002000845600008556000086560700875615
:105700009800FFFFFF000038000001380000023859
:1057100000000338000004380A0005383F0006384E
:10572000070007389F0008380500093800000A38CC
:1057300003000B38C0000C380C000D3880000E3808
:1057400007000F38D0000150A3008056000081569A
:10575000000082560A0083562000845600008556B9
:1057600000008656070087569800FFFFFF000038AC
:10577000000001380000023800000338000004383F
:105780000A0005383F000638070007389F00083830
:105790000800093800000A3806000B3800000C38F1
:1057A0000C000D3880000E3807000F38D000015073
:1057B000A300805600008156000082560A008356DE
:1057C0002000845600008556000086560700875644
:1057D0009800FFFFFF000038000001380000023889
:1057E00000000338000004380A0005383F0006387E
:1057F000070007389F0008380600093840000A38BB
:1058000004000B38B0000C380C000D3880000E3846
:1058100007000F38D0000150A300805600008156C9
:10582000000082560A0083562000845600008556E8
:1058300000008656070087569800FFFFFF000038DB
:10584000000001380000023800000338000004386E
:105850000A0005383F000638070007389F0008385F
:105860000400093800000A3803000B3800000C3827
:105870000C000D3880000E3807000F38D0000150A2
:10588000A300805600008156000082560A0083560D
:105890002000845600008556000086560700875673
:1058A0009800FFFFFF00424D365802000000000044
:1058B000420000002800000040010000F00000004D
:1058C000010010000300000000580200C40E000098
:1058D000C40E0000000000000000000000F80000FE
:1058E000E00700001F000000085900080000002029
:1058F00068000000300100087059000868000020AE
:10590000602600004C0100080048E8010304060876
:105910000C101820300000000000000000010203FD
:105920000406070809030406080C101820300000BC
:105930000000010203040102030406070809000035
:1059400000000000FF000000000000000000010057
:105950000000000000000000000000000001010045
:105960000000000000000000000000000100000036
:04000005080000F5FA
:00000001FF
