:020000040800F2
:10000000B826002089010008CB070008C3070008B4
:10001000C707000819050008BF130008000000000A
:100020000000000000000000000000001B0D0008A0
:10003000A306000800000000F1090008691000088C
:10004000A3010008A3010008A3010008A301000800
:10005000A3010008A3010008A3010008A3010008F0
:10006000A3010008A3010008A3010008A3010008E0
:100070003D050008A3010008A3010008A301000832
:10008000A301000885050008A3010008A3010008DA
:10009000A3010008A3010008A3010008A3010008B0
:1000A000A3010008A3010008A3010008A3010008A0
:1000B000A3010008A3010008A3010008A301000890
:1000C000A3010008A3010008A3010008A301000880
:1000D000A3010008FD100008A3010008A301000807
:1000E000A3010008A3010008A301000800F002F822
:1000F00000F03AF80AA090E8000C82448344AAF188
:100100000107DA4501D100F02FF8AFF2090EBAE885
:100110000F0013F0010F18BFFB1A43F0010318473B
:100120006057000080570000103A24BF78C878C19B
:10013000FAD8520724BF30C830C144BF04680C60ED
:10014000704700000023002400250026103A28BF35
:1001500078C1FBD8520728BF30C148BF0B60704739
:100160001FB51FBD10B510BD00F06EF81146FFF7AA
:10017000F7FF01F0EBF900F0A0F803B4FFF7F2FF8E
:1001800003BC01F01EF900000948804709480047F8
:10019000FEE7FEE7FEE7FEE7FEE7FEE7FEE7FEE737
:1001A000FEE7FEE704480549054A064B7047000094
:1001B0006D100008ED000008B8200020B8260020CF
:1001C000B8220020B8220020704700000FB4044974
:1001D00010B503AA029800F009F810BC5DF814FBF2
:1001E000300000207047704770477047074B70B56C
:1001F0000D467B4400F011F80446284600F020F834
:1002000010B14FF0FF3070BD204670BD27130000C5
:1002100001694A1C02610878704700B58FB0CDE9CA
:1002200001310021059105497944CDE903101146BA
:10023000684600F02EF80FB000BD0000E5FFFFFF9C
:10024000007B00F080007047754600F03FF8AE4636
:1002500005006946534620F00700854618B020B5D2
:10026000FFF7A0FFBDE820404FF000064FF0000769
:100270004FF000084FF0000B21F00701AC46ACE84E
:10028000C009ACE8C009ACE8C009ACE8C0098D46BB
:1002900070472DE9F04106460024D6E90170F56863
:1002A0008046304603E04146B847641C3046A847C4
:1002B0000028F8D12046BDE8F08110B50446AFF320
:1002C00000802046BDE81040FFF757BF0048704748
:1002D0005820002008B50121042000F09BFB1020CD
:1002E0008DF8030003208DF802001020ADF8000007
:1002F0006946034800F0D6F900F010F908BD000087
:100300000008014038B50446062C0CD004DC032C50
:1003100060D0052C7ED104E00B2C29D00D2CF9D116
:1003200000E000BF00BF0121FF2002F013F8802190
:10033000122002F00FF85A480078012814D15948C9
:1003400002F05BF8584802F058F8584802F055F8A7
:100350000121FF2001F0FEFF0021152001F0FAFF2E
:10036000534802F04AF802E0524802F046F894E09E
:100370004B480078012818D1112143F2031001F0F5
:10038000B3FF822143F2080001F0AEFF4A4802F0B9
:100390000FF84A4802F00CF8494802F009F8042125
:1003A00044F2074001F0A0FF0FE0112143F20310D7
:1003B00001F09AFF822143F2080001F095FF3E48C8
:1003C00001F0F6FF3F4801F0F3FF0221032002F0A5
:1003D00035F862E0802143F2080001F085FF3A48D9
:1003E00001F0E6FF2E48007801281CD1374801F0C3
:1003F000DFFF374801F0DCFFA82143F6180001F0C9
:1004000073FF102143F2216001F06EFFB02143F62B
:10041000010000E040E001F067FF042144F20740E2
:1004200001F062FF33E0212144F2407001F05CFFF3
:100430002A2145F21E0001F057FFF82145F2020083
:1004400001F052FF012145F21F0001F04DFF612133
:100450004FF4864001F048FF694643F6180001F06A
:1004600067FD9DF8000040F0600143F6180001F0C0
:100470003BFF694643F2216001F05AFD9DF8000000
:1004800000F0DF0143F2216001F02EFF00BF0221E6
:10049000032001F0D3FF00E000BF00BF38BD000023
:1004A0004E00002098270008942A0008BC2A000863
:1004B000202C000890240008104F00082854000841
:1004C000205500080054000854340008743D00080A
:1004D0008C30000808B50121482000F09BFA10205C
:1004E0008DF8030003208DF802002020ADF80000F5
:1004F0006946074800F0D6F80420ADF800006946C8
:10050000044800F0CFF80421024800F058F908BD73
:10051000000C01400018014000BFFEE710B510219B
:10052000014800F04CF910BD0008014010B5102141
:10053000014800F042F910BD0008014010B520202C
:1005400000F072F8A8B10B4800F054F800210A48F6
:1005500000F05EF800210848143000F059F800223D
:100560000321064800F0A4FBFFF7D8FF012004494F
:10057000087010BD201003001C0002400030014034
:100580003800002010B54FF0007000F04DF860B159
:100590004FF0407000F02EF80021044800F038F8C9
:1005A00000228021024800F030FE10BD8000024091
:1005B0000044004070B505460C46FFF7B7FF01F058
:1005C0007BFE0A4885620462C563446301220321FD
:1005D000074800F06DFB012104481C3000F018F8BA
:1005E00001210248303000F013F870BD00000240D5
:1005F0000030014000F0805111B10349086001E072
:1006000002494860704700000404024000000240B4
:1006100021B1026842F00102026004E002684FF674
:10062000FE731A400260704701460020002201F06C
:10063000805313B1054B1A6801E0054B1A6802EAB2
:1006400001030BB1012000E00020704700040240CC
:10065000000002401AB103680B43036002E0036824
:100660008B430360704710B50022026847F6F073B1
:100670009A430C6A8B6823430C6923434C692343D8
:100680008C692343CC6923434C6A23438C6A2343FC
:100690001A430260CB6843600B6883604B68C36099
:1006A00010BD70472DE9F0410246002500260020CC
:1006B00000230024002791F803C00CF00F0591F8E7
:1006C00003C00CF0100CBCF1000F03D091F802C075
:1006D0004CEA050591F800C0BCF1000F31D0146858
:1006E00000202BE04FF0010C0CFA00F3B1F800C031
:1006F0000CEA03069E4220D183004FF00F0C0CFA47
:1007000003F7BC4305FA03FC4CEA040491F803C068
:10071000BCF1280F06D14FF0010C0CFA00FCC2F816
:1007200014C00AE091F803C0BCF1480F05D14FF0A6
:10073000010C0CFA00FCC2F810C0401C0828D1D3F0
:100740001460B1F800C0BCF1FF0F34DD5468002024
:100750002EE000F1080C4FF0010808FA0CF3B1F894
:1007600000C00CEA03069E4221D183004FF00F0C1B
:100770000CFA03F7BC4305FA03FC4CEA040491F8B5
:1007800003C0BCF1280F05D100F1080C08FA0CF8E1
:10079000C2F8148091F803C0BCF1480F07D100F1F2
:1007A000080C4FF0010808FA0CF8C2F81080401C41
:1007B0000828CED35460BDE8F081416170470161E3
:1007C000704700BFFEE700BFFEE7704710B54FF46B
:1007D000407000F039F810BD70B5002100230F22E1
:1007E000C47804B3154C246804F4E064C4F5E064F0
:1007F000210AC1F10403CA40447804FA03F1847861
:100800001440214309010E4C0678A155047804F0E8
:100810001F050124AC4005786D11AD0005F1E02500
:10082000C5F8004109E0047804F01F050124AC403C
:10083000044D0678761145F8264070BD0CED00E0B9
:1008400000E400E080E100E002490143024A116057
:10085000704700000000FA050CED00E010B50446FA
:10086000092C2AD2DFE804F005090D1115191D2104
:100870002500154801F0C1FD23E0144801F0BDFD3D
:100880001FE0134801F0B9FD1BE0124801F0B5FD6F
:1008900017E0114801F0B1FD13E0104801F0ADFD83
:1008A0000FE00F4801F0A9FD0BE00E4801F0A5FD97
:1008B00007E00D4801F0A1FD03E0054801F09DFDB2
:1008C00000BF00BF10BD0000E02A0008802B000818
:1008D000202C0008C02C0008602D0008042E000801
:1008E000A82E0008442F0008E82F000810B5044681
:1008F000092C2AD2DFE804F005090D1115191D2174
:100900002500154801F054FD23E0144801F050FD86
:100910001FE0134801F04CFD1BE0124801F048FDB8
:1009200017E0114801F044FD13E0104801F040FDCC
:100930000FE00F4801F03CFD0BE00E4801F038FDE0
:1009400007E00D4801F034FD03E0034801F030FDFD
:1009500000BF00BF10BD0000205500086856000809
:1009600088550008F055000818580008E05600089F
:10097000B0570008485700082854000810B504462E
:10098000072C21D2DFE804F004080C1014181C0016
:10099000104801F00DFD1BE00F4801F009FD17E0C4
:1009A0000E4801F005FD13E00D4801F001FD0FE0D8
:1009B0000C4801F0FDFC0BE00B4801F0F9FC07E0EE
:1009C0000A4801F0F5FC03E0024801F0F1FC00BF29
:1009D00000BF10BD8C300008F83000083432000829
:1009E00064310008CC3100089C32000884330008D0
:1009F0007047000029B1064A52690243044B5A610C
:100A000004E0034A52698243014B5A617047000077
:100A10000010024029B1064A92690243044B9A61D0
:100A200004E0034A92698243014B9A6170470000D7
:100A30000010024030B500210022002400232D4D7B
:100A40006D6805F00C0121B1042905D0082923D1D6
:100A500005E0294D056022E0274D05601FE0254D8A
:100A60006D6805F47012234D6D6805F4803402251D
:100A700005EB92421CB9214D554305600BE01D4D1D
:100A80006D6805F400351DB11C4D5543056002E04D
:100A9000194D5543056002E0174D056000BF00BFCA
:100AA000144D6D6805F0F0010909154D6B5C056882
:100AB000DD4045600F4D6D6805F4E061090A104D99
:100AC0006B5C4568DD4085600A4D6D6805F46051DA
:100AD000C90A0B4D6B5C4568DD40C560054D6D680E
:100AE00005F44041890B074D6B5CC568B5FBF3F518
:100AF000056130BD0010024000127A0000093D007F
:100B0000000000201000002000B593B0012141F248
:100B10000400FFF77FFF01210846FFF76BFFE0208D
:100B2000ADF8480018208DF84B0003208DF84A00DE
:100B300012A94048FFF7B6FDE0213E48FFF73FFE0F
:100B40000020ADF834004FF48270ADF8360000207C
:100B5000ADF83800ADF83A00ADF83C004FF4007045
:100B6000ADF83E001820ADF840000020ADF842007E
:100B70000720ADF844000DA92F4800F0B0F801217E
:100B80002D4800F089F8FF2000F05CF82A480C306E
:100B9000029000200490069080200790002008908A
:100BA00009900A904FF400500B9000200C9002A97D
:100BB0002248FFF758FD0C208DF8040000208DF826
:100BC00005008DF8060001208DF8070001A8FFF749
:100BD00003FE11208DF8040000208DF805008DF82B
:100BE000060001208DF8070001A8FFF7F5FD102091
:100BF000049040020B9002A910481430FFF733FD17
:100C00000F480290102004904FF440500B9002A91E
:100C10000A486430FFF727FD012202210748FFF749
:100C200019FD0122022105486430FFF713FD13B0BE
:100C300000BD000000080140003001401C000240DF
:100C40000444004070B50546002405E0601CC4B2B1
:100C5000C82C01DD002070BD02210E4800F031F8E3
:100C60000028F3D029460B4800F037F8002405E0AF
:100C7000601CC4B2C82C01DD0020ECE7012105484E
:100C800000F01FF80028F3D0024800F023F8C0B2AB
:100C9000E1E700000030014021B1028842F040024B
:100CA000028004E002884FF6BF731A40028070474A
:100CB0001AB183880B43838002E083888B4383804F
:100CC00070470246002013890B400BB1012000E061
:100CD000002070470146888970478181704710B5B0
:100CE0000022028802F441520B884C8823438C88EE
:100CF0002343CC8823430C8923434C8923438C8989
:100D00002343CC8923431A430280838B4FF2FF7421
:100D1000234083830B8A038210BD704710B522489D
:100D200000682249096808441F49086008460068AD
:100D30001F49096888422CD21E4800681E49884213
:100D400004D10C461D481B49086003E01B4C1A489F
:100D50001849086021461548006800F0B7F91448A2
:100D6000006811490968401A15490860084600687A
:100D7000B0F5805F02D34FF4805001E01048006866
:100D80000A490860084601680A480068FFF712FC33
:100D900008E0084801680548006800F097F901205C
:100DA0000849087010BD0000400000203C000020F1
:100DB000500000203400002058000020581000206F
:100DC000440000203A00002010B500F001F810BDEA
:100DD0000CB50020019000903348006840F480304A
:100DE0003149086000BF3048006800F400300090CE
:100DF0000198401C0190009818B90198B0F5A06FB7
:100E0000F1D12948006800F4003010B101200090B1
:100E100001E0002000900098012843D12348006899
:100E200040F01000214908600846006820F00300E7
:100E300008600846006840F0020008601A484068F0
:100E4000194948600846406848600846406840F4D0
:100E5000806048600846406820F47C10486008467E
:100E6000406840F4E81048600846006840F0807030
:100E7000086000BF0C48006800F000700028F9D03E
:100E80000948406820F00300074948600846406868
:100E900040F00200486000BF0348406800F00C00CA
:100EA0000828F9D10CBD00000010024000200240CB
:100EB00010B500F02DFB00F0B7FA01F00FFA00BFFB
:100EC0000821412000F038FB0028F9D001F0B0F8EB
:100ED0000D49086008460068B0F5805F02D34FF402
:100EE000805001E00848006808490860084809493E
:100EF0000860002008490860044801680548006847
:100F0000FFF758FB10BD0000500000203C000020FF
:100F10005800002034000020400000202DE9F0415E
:100F200000F0F6FA00F080FA01F0D8F900BF0821CD
:100F3000412000F001FB0028F9D001F079F83D498B
:100F4000086000BF80213C4800F068F90028F9D013
:100F5000FF21394800F02FFA00BF8021364800F009
:100F60005DF90028F9D0AA21334800F024FA0025C1
:100F70000CE000BF8021304800F050F90028F9D083
:100F80002E48415D2C4800F016FA6D1C422DF0DB16
:100F9000FFF7CCFA01F090F90026002400BF2AE008
:100FA000002424E00020FFF74DFE80460020FFF7DC
:100FB00049FE074600BF80211F4800F02FF9002896
:100FC000F9D039461C4800F0F6F90F2000F07AFA03
:100FD00000BF8021184800F021F90028F9D04146CF
:100FE000154800F0E8F90F2000F06CFA641CB4F525
:100FF000A07FD7DB761CF02ED2DB00BF80210E480D
:1010000000F00CF90028F9D0BB210B4800F0D3F90F
:101010000C2000F057FA00BF8021074800F0FEF8CE
:101020000028F9D0CC21044800F0C5F9FFF776FA82
:10103000BDE8F08150000020003801404E24000837
:10104000042808D14FF0E021096941F004014FF074
:10105000E022116107E04FF0E021096921F004016D
:101060004FF0E022116170477047000010B513483F
:10107000006840F0010011490860084640681049C6
:1010800008400E494860084600680E4908400B4970
:1010900008600846006820F4802008600846406820
:1010A00020F4FE0048604FF41F008860FFF78CFEBC
:1010B0004FF000600449086010BD000000100240BD
:1010C0000000FFF8FFFFF6FE08ED00E070B50546F2
:1010D0000C46002600BF0CE000BF8021064800F04F
:1010E0009DF80028F9D02178034800F064F9641CC9
:1010F000761CAE42F0D170BD0038014010B540F210
:101100002551094800F097F860B140F22551064892
:1011100000F060F8044800F049F904490870012023
:101120000349087010BD0000003801402C00002069
:101130002D00002010B586B00446012144F20500C0
:10114000FFF768FC4FF40070ADF8140003208DF831
:10115000160018208DF8170005A91C48FFF7A2FA01
:101160004FF48060ADF8140004208DF8170005A935
:101170001648FFF797FA25208DF8100000208DF80B
:1011800011008DF8120001208DF8130004A8FFF75C
:1011900023FB00940020ADF80400ADF80600ADF884
:1011A0000800ADF80C000C20ADF80A0069460848AC
:1011B00000F090F8012240F22551054800F065F852
:1011C0000121034800F015F806B010BD00080140E9
:1011D0000038014010B50022002340F66A14A142F5
:1011E00000D100BF0A1201249440A3B2DC43048062
:1011F00010BD21B1828942F40052828104E08289CB
:101200004DF6FF731A40828170471AB1838A0B43EF
:10121000838202E0838A8B438382704702460020E8
:10122000B1F5007F00D100BF13880B400BB1012046
:1012300000E00020704770B502460024002300251E
:10124000002040F66A16B14200D100BFC1F342153A
:1012500001F01F03012606FA03F3012D02D196893E
:10126000334006E0022D02D1168A334001E0968A0F
:1012700033400C12012606FA04F41688344013B1E8
:101280000CB1012000E0002070BDF0B50346002441
:1012900000260025002040F66A17B94200D100BFA1
:1012A0001846C1F3421401F01F06012707FA06F59C
:1012B000012C01D10C3004E0022C01D1103000E0EF
:1012C00014301AB107682F43076002E00768AF4384
:1012D0000760F0BD2DE9F04786B005460E460024B4
:1012E000A24600BFA1460027B08900B100BF2F462B
:1012F0002C8A4CF6FF700440F08804432C82AC89A1
:101300004EF6F3100440B0883189084371890843D0
:101310000443AC81AC8A4FF6FF400440B0890443DB
:10132000AC8201A8FFF786FB1F48874202D1DDF897
:1013300010A001E0DDF80CA0A88900F4004040B145
:101340000AEBCA0000EB0A1031684900B0FBF1F863
:1013500007E00AEBCA0000EB0A1031688900B0FB15
:10136000F1F86420B8FBF0F004012009642101FBCE
:101370001089A88900F4004040B1322000EBC90078
:10138000B0FBF1F000F00700044308E0322000EB6E
:1013900009106421B0FBF1F000F00F0004432C8130
:1013A00006B0BDE8F087000000380140014688889B
:1013B000C0F308007047C1F308028280704700BF85
:1013C000FEE700BF704770B50446FFF7AFF8E0B224
:1013D000FFF738FC0020FFF735FC0546FFF79EF8C5
:1013E000284670BD70B504460D46FFF79FF80A20E9
:1013F00000F068F8E0B2FFF725FCE8B2FFF722FC46
:101400000A2000F05FF8FFF789F8012070BD70B581
:1014100005460C46284600F023FE064626EA04014F
:10142000284601F00BF870BD10B50121042001F031
:1014300005F810BD10B56FF00400FFF701FE0A4873
:1014400000680A49B0FBF1F00949087008460078C5
:1014500000EB4001C1EBC0104FF6FF7101EAC00084
:101460000449088010BD00001400002000127A001A
:10147000280000202A0000200146114A12884A4311
:101480004FF0E0235A6100229A611A46126942F035
:1014900001021A6100BF4FF0E022106900F0010262
:1014A0001AB100F48032002AF5D04FF0E022126920
:1014B00022F001024FF0E0231A6100229A61704786
:1014C0002A0000200146114A12784A434FF0E023D7
:1014D0005A6100229A611A46126942F001021A61A9
:1014E00000BF4FF0E022106900F001021AB100F4D1
:1014F0008032002AF5D04FF0E022126922F001027A
:101500004FF0E0231A6100229A6170472800002002
:1015100010B50121042000F091FF10BD00BF054A65
:10152000128802F04002002AF9D0C2B2014B1B1D02
:101530001A8070470038014070B506460C463046A8
:1015400000F08EFD05462540284670BD1CB50025DF
:1015500000260027FFF73AF9FFF788FDFFF76AFF3B
:101560004FF46120FFF7E6FDFEF7B4FFFEF7B2FE91
:1015700000F080FDFFF7C8FA15E05521002000F0CB
:101580005DFF002000F06CFD0446552C07D0C6A07E
:10159000FEF71CFE4FF47A70FFF76EFF03E0CAA05F
:1015A000FEF714FE00E0E8E700BF65E06020CD49EB
:1015B00008700121FF2000F0CDFE01A90A2000F0F3
:1015C000FBFC69460B2000F0F7FC9DF80400262880
:1015D0000BD09DF80000412803D19DF8000042285F
:1015E00003D0C1A0FEF7F2FD06E00520C749087050
:1015F000C7A0FEF7EBFD40E07820BA49087001A9CA
:1016000043F20A0000F094FC694643F20B0000F03C
:101610008FFC9DF80400562803D19DF80000402857
:1016200003D0C2A0FEF7D2FD06E00B20B749087038
:10163000C7A0FEF7CBFD20E07820AA49087001A9D9
:1016400043F20A0000F074FC694643F20B0000F01C
:101650006FFC9DF80400562803D19DF80000422835
:1016600003D0C2A0FEF7B2FD06E00320A749087030
:10167000C7A0FEF7ABFD00E098E700BFA3480078E5
:10168000FEF740FEA6E3C9480078012875D1002086
:10169000C6490870C648007807286FD007DC0728BD
:1016A0006DD2DFE800F015365781A1C2E200202894
:1016B00066D006DC082873D0102872D011285ED1BD
:1016C0001CE321286ED030286DD03128F7D12EE3CD
:1016D0008E480078052806D10020FFF7BFF8B5A096
:1016E000FEF774FD14E0894800780B2806D100202D
:1016F000FFF7FCF8B8A0FEF769FD09E08348007821
:10170000032805D10020FFF739F9BCA0FEF75EFDE4
:101710002BE37E480078052806D10120FFF79EF8CC
:10172000BFA0FEF753FD14E0784800780B2806D1DF
:101730000120FFF7DBF8C3A0FEF748FD09E073487E
:101740000078032805D10120FFF718F9C6A0FEF79D
:101750003DFD0AE36D480078052806D10220FFF719
:101760007DF8CAA0FEF732FD19E0684800780B2822
:101770000BD10220FFF7BAF803E0F7E28CE2F3E2C4
:10178000C4E2CBA0FEF722FD09E060480078032800
:1017900005D10220FFF7F2F8CEA0FEF717FDE4E234
:1017A00090E2A5E2B8E2BCE258480078052806D1EC
:1017B0000320FFF753F8D0A0FEF708FD13E05348CD
:1017C00000780B2806D10320FFF790F8D3A0FEF78E
:1017D000FDFC08E04D480078032804D1FFF7CEF85F
:1017E000D7A0FEF7F3FCC0E248480078052806D1F0
:1017F0000420FFF733F8DBA0FEF7E8FC14E04348D1
:1018000000780B2806D10420FFF770F8DEA0FEF761
:10181000DDFC09E03D480078032805D10420FFF7EE
:10182000ADF8E2A0FEF7D2FC9FE238480078052828
:1018300005D1FFF713F8E7A0FEF7C8FC14E0334822
:1018400000780B2806D10520FFF750F8EAA0FEF734
:10185000BDFC09E02D480078032805D10520FFF7DD
:101860008DF8EEA0FEF7B2FC7FE22848007805284C
:1018700006D10620FEF7F2FFF2A0FEF7A7FC0AE26F
:10188000224800780B2806D10620FFF72FF8F6A093
:10189000FEF79CFCFFE11D480078032803D10620D9
:1018A000FFF76CF8F4E1F6E141434B20434D44204F
:1018B00053504920696E7465726661636520457294
:1018C000726F72210A00000041434B20434D4420B7
:1018D00053504920696E74657266616365204F4B91
:1018E000210D0A004D00002041434B20434D442070
:1018F00043616E27742066696E64204F5632363419
:1019000030206D6F64756C65210D0A004C0000205D
:1019100041434B20434D44204F56323634302064EF
:10192000657465637465642E0D0A000041434B20A5
:10193000434D442043616E27742066696E64204FD6
:101940005635363430206D6F64756C65210D0A0094
:1019500041434B20434D44204F56353634302064AC
:10196000657465637465642E0D0A000041434B2065
:10197000434D442043616E27742066696E64204F96
:101980005635363432206D6F64756C65210D0A0052
:1019900041434B20434D44204F563536343220646A
:1019A000657465637465642E0D0A00002D000020C7
:1019B0002C00002041434B20434D44207377697431
:1019C000636820746F204F56323634305F313630C2
:1019D000783132300D0A000041434B20434D442002
:1019E00073776974636820746F204F5635363430CE
:1019F0005F333230783234300D0A000041434B20DF
:101A0000434D442073776974636820746F204F5688
:101A1000353634325F333230783234300D0A0000DC
:101A200041434B20434D44207377697463682074AD
:101A30006F204F56323634305F3137367831343498
:101A40000D0A000041434B20434D442073776974D5
:101A5000636820746F204F56353634305F3335322B
:101A6000783238380D0A000041434B20434D442062
:101A700073776974636820746F204F56353634323B
:101A80005F363430783438300D0A000041434B2043
:101A9000434D442073776974636820746F204F56F8
:101AA000323634305F333230783234300D0A000051
:101AB00041434B20434D442073776974636820741D
:101AC0006F204F56353634305F3634307834383006
:101AD0000D0A000041434B20434D44207377697445
:101AE000636820746F204F56353634325F313032A0
:101AF00034783736380D0A0041434B20434D44209B
:101B000073776974636820746F204F5632363430AF
:101B10005F333532783238380D0A000041434B20AC
:101B2000434D442073776974636820746F204F5667
:101B3000353634305F383030783438300D0A0000B4
:101B400041434B20434D442073776974636820748C
:101B50006F204F56353634325F313238307839366F
:101B6000300D0A0041434B20434D44207377697484
:101B7000636820746F204F56323634305F3634300D
:101B8000783438300D0A000041434B20434D442047
:101B900073776974636820746F204F56353634301C
:101BA0005F31303234783736380D0A0041434B20EC
:101BB000434D442073776974636820746F204F56D7
:101BC000353634325F3136303078313230300D0ACC
:101BD0000000000041434B20434D4420737769745B
:101BE000636820746F204F56323634305F3830309F
:101BF000783630300D0A000041434B20434D4420DD
:101C000073776974636820746F204F5635363430AB
:101C10005F31323830783936300D0A0041434B207D
:101C2000434D442073776974636820746F204F5666
:101C3000353634325F3230343878313533360D0A48
:101C40000000000041434B20434D442073776974EA
:101C5000636820746F204F56323634305F31303233
:101C600034783736380D0A0041434B20434D442029
:101C700073776974636820746F204F56353634303B
:101C80005F3136303078313230300D0A00000000DC
:101C900051A0FEF79BFA68E059480078052806D164
:101CA0000720FEF7DBFD57A0FEF790FA09E0544845
:101CB00000780B2805D10720FEF718FE5BA0FEF781
:101CC00085FA52E04E480078052806D10820FEF734
:101CD000C5FD60A0FEF77AFA09E0494800780B28B4
:101CE00005D10820FEF702FE64A0FEF76FFA3CE083
:101CF000012501266BA0FEF769FA36E0012000F00D
:101D0000E1FA3F480078FEF7FDFA2EE002250226B0
:101D10006DA0FEF75BFA28E0012775A0FEF756FAE2
:101D200023E0032503265FA0FEF750FA1DE0002004
:101D300000F0C8FA32480078FEF7E4FA304800783C
:101D4000052803D002210320FFF761FB812143F620
:101D5000180000F0C9FAA72143F2216000F0C4FA8C
:101D60006CA0FEF733FA00E000BF00BF012D0DD1DB
:101D7000012E02D10026FFF79BF86B48007800B3D4
:101D8000002069490870FEF7C9FF23E0022D19D130
:101D9000022E1FD16548007858B12FB154A0FEF72C
:101DA00015FA002700250026002060490870FFF77B
:101DB0007FF85D48007820B100205B490870FEF78D
:101DC000ADFF07E0032D05D1032E03D1002600252A
:101DD000FFF7A4F857E4000041434B20434D442053
:101DE00073776974636820746F204F5635363432C8
:101DF0005F3235393278313934340D0A0000000051
:101E00004C00002041434B20434D442073776974BC
:101E1000636820746F204F56323634305F31323869
:101E20003078313032340D0A0000000041434B203D
:101E3000434D442073776974636820746F204F5654
:101E4000353634305F3230343878313533360D0A38
:101E50000000000041434B20434D442073776974D8
:101E6000636820746F204F56323634305F3136301D
:101E70003078313230300D0A0000000041434B20F1
:101E8000434D442073776974636820746F204F5604
:101E9000353634305F3235393278313934340D0AE1
:101EA0000000000041434B20434D442043414D205E
:101EB00073746172742073696E676C652073686FE8
:101EC0006F742E0D0A00000041434B20434D442007
:101ED00043414D20737461727420766964656F208C
:101EE00073747265616D696E672E0D0A00000000E3
:101EF00041434B20434D442043414D2073746F7048
:101F000020766964656F2073747265616D696E67B0
:101F10002E0D0A0041434B20434D44205365745419
:101F20006F424D50200D0A00380000203A0000207A
:101F300070B504460D4600F033F9782000F066F9DC
:101F400018B900F04BF9002070BD1420FFF7BAFA61
:101F50001420FFF7B7FA201200F058F918B900F072
:101F60003DF90020F0E71420FFF7ACFAE0B200F0F2
:101F70004DF918B900F032F90020E5E71420FFF719
:101F8000A1FA00F02BF91420FFF79CFA00F008F9F1
:101F9000792000F03BF918B900F020F90020D3E7D0
:101FA0001420FFF78FFA00F09DF8287000F0D8F8A1
:101FB00000F014F90120C7E770B505460C460A2069
:101FC000FFF780FA00F0ECF81848007800F01EF9EE
:101FD00018B900F003F9012070BD0A20FFF772FA6A
:101FE000284600F013F918B900F0F8F80220F3E7DA
:101FF00000F0F4F80A20FFF765FA00F0D1F80B4979
:10200000097841F0010000F001F918B900F0E6F894
:102010000320E1E70A20FFF755FA00F063F820708B
:1020200000F09EF800F0DAF80020D5E74D0000201F
:102030002DE9F0410027422000F012F80446432029
:1020400000F00EF80546442000F00AF800F07F0684
:10205000300440EA052040EA04073846BDE8F08134
:1020600070B5044604F07F00FFF7ADF90546284639
:1020700070BD000008B501210820FEF7CBFC4FF42D
:102080000060ADF8000048208DF8030003208DF8B3
:10209000020069461248FEF705FB4FF40061104844
:1020A000FEF78DFB4FF48060ADF8000010208DF836
:1020B000030069460A48FEF7F5FA4FF480610848C4
:1020C000FEF77DFB0648001D006820F470400449BF
:1020D000091D08600846006840F44050086008BDCB
:1020E000000C014070B500241A48006820F47040CC
:1020F000184908600846006840F400400860012064
:10210000FFF7E0F9082516E00120FFF7DBF90120D1
:1021100011490860FFF7D6F96006040E0F48D0F8A1
:102120002C0108B1601CC4B200200B4908600120DA
:10213000FFF7C8F96D1E002DE6D10648006820F4AF
:102140007040044908600846006840F44050086048
:10215000204670BD040C0140A8812142008021422C
:1021600010B501200C490860FFF7ACF901200B49BC
:10217000C1F8A801FFF7A6F900200749091F086068
:102180000120FFF79FF900200449C1F8AC010120AC
:10219000FFF798F910BD0000AC8121420080214278
:1021A00010B501200B490860FFF78CF901200A499E
:1021B000C1F8A801FFF786F9002006490860012050
:1021C000FFF780F900200449C1F8A8010120FFF7BA
:1021D00079F910BDAC8121420080214210B5002068
:1021E000084908600120FFF76DF901200649C1F890
:1021F000A801FFF767F9012002490860FFF762F9BB
:1022000010BD0000AC8121420080214270B506461D
:10221000002419E006FA04F000F0800018B1012053
:102220002249086002E00020204908600120FFF7F1
:1022300049F901201D49091F0860FFF743F90020F3
:102240001B49C1F8A801641C082CE3D31948006895
:1022500020F47040174908600846006840F40040C8
:1022600008600120FFF72EF901201049091F0860BE
:10227000FFF728F90E48D0F82C0108B1002500E03E
:10228000012500200949091F08600120FFF71AF9FC
:102290000848006820F47040064908600846006855
:1022A00040F440500860284670BD0000AC812142D7
:1022B00000802142040C014010B53C20FEF7C2FC16
:1022C00010BD000018B90021034A117002E001217D
:1022D000014A1170704700004E00002010B5022125
:1022E000042000F0ABF810BD70B504460D46FFF7B2
:1022F00057FF17480078FFF789FF18B9FFF76EFFFF
:10230000002070BD0520FFF7DDF8C4F30720FFF7BC
:102310007DFF18B9FFF762FF0020F2E70520FFF705
:10232000D1F8E0B2FFF772FF18B9FFF757FF0020AE
:10233000E7E70520FFF7C6F8E8B2FFF767FF18B92F
:10234000FFF74CFF0020DCE7FFF748FF0120D8E74C
:102350004D00002070B504460D460520FFF7B2F889
:10236000FFF71EFF11480078FFF750FF18B9FFF77D
:1023700035FF012070BD0520FFF7A4F8E0B2FFF79C
:1023800045FF18B9FFF72AFF0220F3E70520FFF702
:1023900099F8E8B2FFF73AFF18B9FFF71FFF0320DB
:1023A000E8E7FFF71BFF0020E4E700004D000020F6
:1023B0002DE9F04107464FF000083E460BE0348817
:1023C000B57829462046FFF78FFF80464FF41670F8
:1023D000FFF778F8361D4FF6FF70844201D00120D8
:1023E00000E00020FF2D01D0012100E00021084382
:1023F0000028E4D14046BDE8F0812DE9F0410546D2
:102400004FF00008002600272C4607E02688678842
:1024100039463046FFF79EFF8046241DFF2E01D02F
:10242000012000E00020FF2F01D0012100E0002169
:1024300008430028EAD14046BDE8F08170B5044663
:102440000D4644F080002946FEF7CCFF70BD424D9A
:102450003658020000000000420000002800000082
:1024600040010000F0000000010010000300000027
:1024700000580200C40E0000C40E0000000000005E
:102480000000000000F80000E00700001F0000004E
:10249000FF0000002C00FF002E00DF00FF00010005
:1024A0003C00320011000000090002000400A800F6
:1024B0001300E500140048002C000C0033007800E5
:1024C0003A0033003B00FB003E00000043001100D7
:1024D00016001000390002003500880022000A00B2
:1024E00037004000230000003400A0000600020076
:1024F000060088000700C0000D00B7000E000100B4
:102500004C0000004A008100210099002400400096
:1025100025003800260082005C00000063000000F7
:10252000460022000C003A005D0055005E007D0070
:102530005F007D0060005500610070006200800057
:102540007C00050020008000280030006C000000A6
:102550006D0080006E0000007000020071009400A9
:102560007300C1003D003400120004005A005700FF
:102570004F00BB0050009C00FF000000E5007F0002
:10258000F900C00041002400E00014007600FF00C4
:102590003300A00042002000430018004C0000005F
:1025A0008700D00088003F00D7000300D90010004A
:1025B000D3008200C8000800C90080007C00000031
:1025C0007D0000007C0003007D0048007D00480085
:1025D0007C0008007D0020007D0010007D000E00C2
:1025E0009000000091000E0091001A00910031004F
:1025F00091005A00910069009100750091007E00E1
:102600009100880091008F00910096009100A30036
:102610009100AF009100C4009100D7009100E80044
:102620009100200092000000930006009300E30058
:102630009300030093000300930000009300020046
:10264000930000009300000093000000930000003E
:10265000930000009300000093000000960000002B
:1026600097000800970019009700020097000C00DF
:10267000970024009700300097002800970026005C
:1026800097000200970098009700800097000000D4
:1026900097000000A4000000A8000000C500110081
:1026A000C6005100BF008000C7001000B6006600E1
:1026B000B800A500B7006400B9007C00B300AF000B
:1026C000B4009700B500FF00B000C500B100940051
:1026D000B2000F00C4005C00A6000000A7002000AC
:1026E000A700D800A7001B00A7003100A70000002A
:1026F000A7001800A7002000A700D800A700190015
:10270000A7003100A7000000A7001800A7002000C4
:10271000A700D800A7001900A7003100A7000000FB
:10272000A70018007F000000E5001F00E10077000F
:10273000DD007F00C2000E00FF000000E00004008A
:10274000C000C800C100960086003D005100900006
:1027500052002C0053000000540000005500880077
:1027600057000000500092005A0050005B003C00EF
:102770005C000000D3000400E0000000FF00000047
:1027800005000000DA000800D7000300E0000000A8
:1027900005000000FF00FF00FF0000002C00FF000C
:1027A0002E00DF00FF0001003C003200110000009D
:1027B00009000200040028001300E500140048008E
:1027C0002C000C00330078003A0033003B00FB0083
:1027D0003E00000043001100160010003900920076
:1027E0003500DA0022001A003700C3002300000081
:1027F0003400C00036001A00060088000700C00040
:102800000D0087000E0041004C0000004800000051
:102810005B000000420003004A0081002100990093
:102820002400400025003800260082005C000000E3
:102830006300000061007000620080007C00050001
:1028400020008000280030006C0000006D00800037
:102850006E00000070000200710094007300C1005F
:10286000120040001700110018004300190000007A
:102870001A004B00320009003700C0004F00600012
:102880005000A8006D0000003D00380046003F00E9
:102890004F0060000C003C00FF000000E5007F00DE
:1028A000F900C00041002400E00014007600FF00A1
:1028B0003300A00042002000430018004C0000003C
:1028C0008700D50088003F00D7000300D900100022
:1028D000D3008200C8000800C90080007C0000000E
:1028E0007D0000007C0003007D0048007D00480062
:1028F0007C0008007D0020007D0010007D000E009F
:102900009000000091000E0091001A00910031002B
:1029100091005A00910069009100750091007E00BD
:102920009100880091008F00910096009100A30013
:102930009100AF009100C4009100D7009100E80021
:102940009100200092000000930006009300E30035
:10295000930005009300050093000000930004001D
:10296000930000009300000093000000930000001B
:102970009300000093000000930000009600000008
:1029800097000800970019009700020097000C00BC
:102990009700240097003000970028009700260039
:1029A00097000200970098009700800097000000B1
:1029B00097000000C300ED00A4000000A800000084
:1029C000C5001100C6005100BF008000C700100004
:1029D000B6006600B800A500B7006400B9007C002E
:1029E000B300AF00B4009700B500FF00B000C50011
:1029F000B1009400B2000F00C4005C00C00064008D
:102A0000C1004B008C00000086003D00500000001B
:102A10005100C8005200960053000000540000000E
:102A2000550000005A00C8005B0096005C000000E2
:102A3000D3000000C300ED007F000000DA000000BA
:102A4000E5001F00E1006700E0000000DD007F00FE
:102A50000500000012004000D3000400C000160072
:102A6000C10012008C00000086003D0050000000F4
:102A700051002C00520024005300000054000000BC
:102A8000550000005A002C005B0024005C00000090
:102A9000FF00FF00FF00000005000000DA0010004A
:102AA000D7000300DF000000330080003C0040003E
:102AB000E100770000000000FF00FF00E0001400CC
:102AC000E1007700E5001F00D7000300DA001000E6
:102AD000E0000000FF00010004000800FF00FF000C
:102AE000FF00010012004000170011001800430011
:102AF000190000001A004B00320009004F00CA0004
:102B00005000A8005A0023006D0000003900120098
:102B10003500DA0022001A003700C300230000004D
:102B20003400C00036001A00060088000700C0000C
:102B30000D0087000E0041004C000000FF00000067
:102B4000E0000400C0006400C1004B0086003500B6
:102B5000500092005100C80052009600530000003F
:102B60005400000055000000570000005A002800E3
:102B70005B001E005C000000E0000000FF00FF00A2
:102B8000FF00010012004000170011001800430070
:102B9000190000001A004B00320009004F00CA0063
:102BA0005000A8005A0023006D00000039001200F8
:102BB0003500DA0022001A003700C30023000000AD
:102BC0003400C00036001A00060088000700C0006C
:102BD0000D0087000E0041004C000000FF000000C7
:102BE000E0000400C0006400C1004B008600350016
:102BF000500092005100C80052009600530000009F
:102C00005400000055000000570000005A002C003E
:102C10005B0024005C000000E0000000FF00FF00FB
:102C2000FF000100120040001700110018004300CF
:102C3000190000001A004B00320009004F00CA00C2
:102C40005000A8005A0023006D0000003900120057
:102C50003500DA0022001A003700C300230000000C
:102C60003400C00036001A00060088000700C000CB
:102C70000D0087000E0041004C000000FF00000026
:102C8000E0000400C0006400C1004B008600350075
:102C9000500089005100C800520096005300000007
:102CA0005400000055000000570000005A0050007A
:102CB0005B003C005C000000E0000000FF00FF0043
:102CC000FF0001001200400017001100180043002F
:102CD000190000001A004B00320009004F00CA0022
:102CE0005000A8005A0023006D00000039001200B7
:102CF0003500DA0022001A003700C300230000006C
:102D00003400C00036001A00060088000700C0002A
:102D10000D0087000E0041004C000000FF00000085
:102D2000E0000400C0006400C1004B0086003500D4
:102D3000500089005100C800520096005300000066
:102D40005400000055000000570000005A005800D1
:102D50005B0048005C000000E0000000FF00FF0096
:102D6000FF00010011000100120000001700110017
:102D70001800750032003600190001001A00970093
:102D800003000F00370040004F00BB0050009C00C4
:102D90005A0057006D0080003D00340039000200E9
:102DA0003500880022000A00370040003400A000EF
:102DB000060002000D00B7000E000100FF00000039
:102DC000E0000400C000C800C100960086003D007D
:102DD000500089005100900052002C005300000068
:102DE0005400000055008800570000005A00A00061
:102DF0005B0078005C000000D3000400E0000000ED
:102E0000FF00FF00FF0001001100010012000000A0
:102E1000170011001800750032003600190001007B
:102E20001A00970003000F00370040004F00BB005E
:102E300050009C005A0057006D0080003D00340097
:102E4000390002003500880022000A0037004000E7
:102E50003400A000060002000D00B7000E000100C3
:102E6000FF000000E0000400C000C800C1009600A0
:102E700086003500500089005100900052002C005F
:102E80005300000054000000550088005700000067
:102E90005A00C8005B0096005C000000D3000200EE
:102EA000E0000000FF00FF00FF0001001100010032
:102EB00012000000170011001800750032003600E3
:102EC000190001001A00970003000F0037004000AE
:102ED0004F00BB0050009C005A0057006D0080005E
:102EE0003D003400390002003500880022000A004D
:102EF000370040003400A000060002000D00B700BB
:102F00000E000100FF000000C000C800C1009600D4
:102F10008C00000086003D00500000005100900031
:102F200052002C005300000054000000550088009F
:102F30005A0000005B00C0005C000100D3000200EA
:102F4000FF00FF00FF00010011000100120000005F
:102F5000170011001800750032003600190001003A
:102F60001A00970003000F00370040004F00BB001D
:102F700050009C005A0057006D0080003D00340056
:102F8000390002003500880022000A0037004000A6
:102F90003400A000060002000D00B7000E00010082
:102FA000FF000000E0000400C000C800C10096005F
:102FB00086003D00500000005100900052002C009F
:102FC0005300000054000000550088005700000026
:102FD0005A0040005B00F0005C000100D3000200DA
:102FE000E0000000FF00FF00FF00010011000100F1
:102FF00012000000170011001800750032003600A2
:10300000190001001A00970003000F00370040006C
:103010004F00BB0050009C005A0057006D0080001C
:103020003D003400390002003500880022000A000B
:10303000370040003400A000060002000D00B70079
:103040000E000100FF000000E0000400C000C80006
:10305000C100960086003D00500000005100900025
:1030600052002C005300000054000000550088005E
:10307000570000005A0090005B002C005C00050027
:10308000D3000200E0000000FF00FF000038010054
:103090000138A8000238000003380A0004380A008A
:1030A0000538200006380700073898000838010066
:1030B000093840000A3800000B38F0000C380C00CA
:1030C0000D3880000E3807000F38D00001507F0007
:1030D000805600008156000082560A008356200068
:1030E00084560000855600008656070087569800D3
:1030F00011300F00FFFFFF00003801000138A80069
:103100000238000003380A0004380A00053820009D
:103110000638070007389800083802000938800090
:103120000A3801000B38E0000C380C000D38800024
:103130000E3807000F38D00001507F008056000085
:103140008156000082560A008356200084560000F3
:103150008556000086560700875698000138B00053
:10316000FFFFFF00003801000138B0000238000006
:1031700003380A0004380A00053820000638070022
:103180000738980008380500093800000A3803009D
:103190000B38C0000C380C000D3880000E380700CA
:1031A0000F38D00001507F0080560000815600008B
:1031B00082560A008356200084560000855600007F
:1031C0008656070087569800FFFFFF000038010071
:1031D0000138B0000238000003380A0004380A0041
:1031E0000538200006380700073898000838060020
:1031F000093840000A3804000B38B0000C380C00C5
:103200000D3880000E3807000F38D00001507F00C5
:10321000805600008156000082560A008356200026
:103220008456000085560000865607008756980091
:10323000FFFFFF00003801000138B0000238000035
:1032400003380A0004380A00053820000638070051
:103250000738980008380400093800000A380300CD
:103260000B3800000C380C000D3880000E380700B9
:103270000F38D00001507F008056000081560000BA
:1032800082560A00835620008456000085560000AE
:103290008656070087569800FFFFFF0000380100A0
:1032A0000138B0000238000003380A0004380A0070
:1032B000053820000638070007389800083808004D
:1032C000093800000A3806000B3800000C380C00E2
:1032D0000D3880000E3807000F38D0001038C200BB
:1032E000153844001838A8002438010027380A008F
:1032F000003A78000D3A10000E3A0D00003A7800BE
:103300000B4635001D4700001C47500082560A003E
:103310008356200086560700875698009B58000069
:103320009A58C0009B5800009A58C00002300C0008
:1033300002300000004332000B46350002300C0022
:1033400002300000134702000046800021470200BF
:103350001C474000084400000C46220015380400B9
:103360001838C8001F5000000250E0000A44010055
:10337000024490001138F0001838A80021361000DF
:10338000FFFFFF00003801000138B00002380000E4
:1033900003380A0004380A00053820000638070000
:1033A0000738980008380A00093820000A38070052
:1033B0000B3898000C380C000D3880000E380700D0
:1033C0000F38D00001507F00805600008156000069
:1033D00082560A008356200084560000855600005D
:1033E0008656070087569800FFFFFF00003805004B
:1033F0000138F8000238030003385C00043801008B
:1034000005384400063800000738F000083801008D
:10341000093840000A3800000B38F0000C380C0066
:103420000D3880000E3807000F38D00001507F00A3
:1034300080560000815600008256010083564400E9
:103440008456000085560000865600008756F3001B
:10345000FFFFFF00033193000830820017307F0028
:103460001830FC001038C2001536F00000300000A3
:103470000130000002305C00033000000430FF0027
:103480000530FF00063043000730370011300800D8
:10349000103010000C462200153804000C37A00034
:1034A0000236FC001236FF003436C000133600002E
:1034B00005367C00213609002236600004364000C3
:1034C0000336A70003362700004021001D402200DC
:1034D000003654000536040006363F00013C8000EB
:1034E00000504F00205004008151790082510000AB
:1034F00085512200975101000150FF0000550A003C
:103500000455000005557F00805008000E3018005B
:10351000104600001D470500084706000838020055
:10352000093880000A3801000B38E0000E38070027
:103530000F38D0001F50000000504F0000433000F3
:103540000335070001357300023580000B3500009C
:10355000033507002438110001351E0002358000B4
:103560000B357F000C380C000D3880000E3803003E
:103570000F38E8000D3A04000E3A03001838C10075
:103580000537DB000A3781000138800021368700CB
:103590000138500003380800273808001038400070
:1035A00004380500053800008256050083560000E7
:1035B000063803000738C000865603008756BC0053
:1035C000003A78001A3A0500133A3000183A000021
:1035D000193A7C00083A1200093AC0000A3A0F0072
:1035E0000B3AA0000C3507000D35D0000035000067
:1035F00001350000023500000A3500000B350000DF
:10360000033500008A5202008B5204008C520800DD
:103610008D5208008E5208008F52100090521000F8
:103620009252000093520200945200009552020000
:1036300096520000975202009852000099520200E0
:103640009A5200009B5202009C5200009D520200C0
:103650009E5200009F52020030300B00023A0000E0
:10366000033A7D00043A0000143A0000153A7D0048
:10367000163A0000003A7800083A0900093A60005A
:103680000A3A07000B3AD0000D3A08000E3A06003D
:10369000935170009B5804009A58C5001E402000AA
:1036A000014042001C4004008A5201008B52040079
:1036B0008C5208008D5210008E5220008F5228002C
:1036C0009052300092520000935201009452000038
:1036D000955204009652000097520800985200003C
:1036E000995210009A5200009B5220009C520000F8
:1036F0009D5228009E5200009F52300082520000CE
:1037000000530000015320000253000003537C00CB
:103710000C5300000D530C000E5320000F5380007B
:10372000105320001153800008532000095340001B
:103730000453000005533000065300000753800077
:10374000145308001553200019533000165310006D
:10375000175300001853020002543F0003540000A6
:10376000063400008051FF00815152008251110047
:103770008351140084512500855124008651060090
:10378000875108008851080089517C008A516000E7
:103790008B51B2008C51B2008D5144008E513D00CE
:1037A0008F515800905146009151F80092510400F9
:1037B000935170009451F0009551F0009651030020
:1037C0009751010098510400995112009A51040038
:1037D0009B5100009C5106009D5182009E510000AB
:1037E00025508000835540008455400080550200DC
:1037F0000050CF0010371000323651000237100051
:103800000337B200043718000B3740000D370300B0
:10381000313601003236520006362400203696003A
:1038200085570700133A300000365200043648002E
:1038300006361B000D370B000F37C000093701009B
:10384000233800000750000009500000115000000C
:10385000135000009E510000865000008750000069
:1038600088500000895000002B300000083801000B
:10387000093840000A3800000B38F000003A7800A0
:103880000150FF00835550008455500080550200C0
:10389000013C8000003C0400005848000158310001
:1038A0000258210003581B0004581A0005581E0036
:1038B00006582900075838000858260009581700EC
:1038C0000A5811000B580E000C580D000D580E0030
:1038D0000E5813000F581A001058150011580D00FB
:1038E0001258080013580500145804001558050014
:1038F0001658090017580D001858110019580A00D9
:103900001A5804001B5800001C5800001D580100E4
:103910001E5806001F5809002058120021580B009D
:1039200022580400235800002458000025580100A4
:103930002658060027580A002858170029580F0053
:103940002A5809002B5806002C5805002D5806004F
:103950002E580A002F580E003058280031581A00EF
:103960003258110033580E0034580E0035580F00ED
:103970003658150037581D0038586E003958390030
:103980003A5827003B581F003C581E003D58230062
:103990003E582F003F58410040580E0041580C003F
:1039A00042580D0043580C0044580C0045580C0078
:1039B00046580C0047580C0048580D0049580E0056
:1039C0004A580E004B580A004C580E004D580E0035
:1039D0004E5810004F5810005058110051580A000E
:1039E00052580F0053580E005458100055581000EC
:1039F0005658100057580A0058580E0059580E00D3
:103A00005A580F005B580F005C580F005D580A00B1
:103A10005E5809005F580D0060580C0061580B009B
:103A200062580D0063580700645817006558140069
:103A30006658180067581800685816006958120030
:103A40006A581B006B581A006C5816006D58160007
:103A50006E5818006F581F0070581C0071581600DF
:103A60007258100073580F007458130075581C00DA
:103A700076581E00775817007858110079581100B1
:103A80007A5814007B581E007C581C007D581C007E
:103A90007E581A007F581A0080581B0081581F005A
:103AA0008258140083581A0084581D0085581E003F
:103AB00086581A0087581A008051FF008151520021
:103AC0008251110083511400845125008551240036
:103AD00086511400875114008851140089516900DF
:103AE0008A5160008B51A2008C519C008D51360090
:103AF0008E5134008F51540090514C009151F80078
:103B000092510400935170009451F0009551F000CF
:103B100096510300975101009851050099512F00CB
:103B20009A5104009B5100009C5106009D51A00039
:103B30009E51A0008A5200008B5201008C5204005A
:103B40008D5208008E5210008F522000905230008B
:103B500092520000935200009452000095520100CE
:103B600096520000975204009852000099520800A3
:103B70009A5200009B5210009C5200009D5220005F
:103B80009E5200009F5230008252000000530000FD
:103B9000015320000253000003537C000C5300002B
:103BA0000D5310000E5320000F53800010532000BF
:103BB00011538000085320000953400004530000B3
:103BC00005533000065300000753800014530800CB
:103BD00015532000195330001653100017530000DE
:103BE00018530200805301008153000082530000EB
:103BF00083531F0084530000855306008653000042
:103C000087530000885300008953E1008A53000065
:103C10008B532B008C5300008D5300008E530000FB
:103C20008F531000905300009153B3009253000043
:103C30009353A6009453080080540C00815418003C
:103C400082542F00835455008454640085547100BD
:103C500086547D00875487008854910089549A00C7
:103C60008A54AA008B54B8008C54CD008D54DD00CA
:103C70008E54EA008F541D009054050091540000AA
:103C8000925404009354200094540300955460000F
:103C9000965402009754B800985402009954860034
:103CA0009A5402009B545B009C5402009D543B00BC
:103CB0009E5402009F541C00A0540200A154040012
:103CC000A2540100A354ED00A4540100A554C50062
:103CD000A6540100A754A500A8540100A9546C00E3
:103CE000AA540100AB544100AC540100AD54200073
:103CF000AE540000AF541600B0540100B15420007F
:103D0000B2540000B3541000B4540000B554F00095
:103D1000B6540000B754DF0002543F0003540000C3
:103D20000055100002550000035506000455000020
:103D300005557F00255080000F3A3000103A2800CA
:103D40001B3A30001E3A2800113A61001F3A100059
:103D50008856FD008956DF008A56FE008B56EF001C
:103D60008C56FE008D56EF008E56AA008F56AA0084
:103D7000FFFFFF00033507000030000001300000A6
:103D800002300000033000000530FF000630FF0065
:103D900007303F000C3507000D35D0000236E40037
:103DA0001236AC00133644002136270022360800B4
:103DB00023362200043660000537DA000A37800017
:103DC00001388A0003380A0004380A000538200048
:103DD000063807000738980008380A00093820001C
:103DE0000A3807000B3898000C380C000D3880009A
:103DF0000E3807000F38D0001038C20015384400C4
:103E00001838C8002438010027380A00003A780022
:103E10000D3A10000E3A0D00103A32001B3A3C00E9
:103E20001E3A3200113A80001F3A2000003A780012
:103E30000B4635001D470000134703001C47500088
:103E400082560A008356200086560700875698003F
:103E500001504F009B5800009A58C00007440800CA
:103E60009B5800009A58C00002300C00023000003D
:103E700003350000255080000F3A4800103A4000FA
:103E80001B3A4A001E3A3E00113A70001F3A2000C9
:103E9000FFFFFF00033193000830820017307F00DE
:103EA0001830FC001038C2001536F0000030000059
:103EB0000130000002300000033000000430FF0039
:103EC00030300B0011300800103010000436600054
:103ED0002236600021360900093700000040210029
:103EE0001D402200003654000536040006363F000F
:103EF000013C80000D3022002336220000504F008C
:103F00002050040081517900825100008551220027
:103F10009751010000550A000455000005557F0027
:103F2000805008000E301800104600001D470500A4
:103F3000084706000C37A00008380A00093820009E
:103F40000A3807000B3898000C380C000D38800038
:103F50000E3807000F38D000875694001F5000001D
:103F600000504F000150CF000043300000433000AC
:103F70000B4635001D47000002300C0002300000E7
:103F8000134703001C4750002147020002449000E1
:103F90000C46220015384400033507000135730034
:103FA000023580000B3500001838C8000138880041
:103FB00024381100003A78001A3A0400133A30000D
:103FC000183A0000193A7C00083A1200093AC00079
:103FD0000A3A0F000B3AA0000C3507000D35D0004F
:103FE0000D3A08000E3A06000035000001350000C9
:103FF000023500000A3500000B35000003350000D3
:1040000030300B00023A0000033A7D00043A000011
:10401000143A0000153A7D00163A0000003A780084
:10402000083A0900093A60000A3A07000B3AD00042
:104030000D3A10000E3A0D00074404009351700031
:104040009B5800009A58C0001E40200001404200CA
:104050001C4006002538AC0027380C0002543F00F5
:1040600003540000063400008051FF0081515200CB
:104070008251110083511400845125008551240080
:1040800086510600875108008851080089517C003C
:104090008A5160008B51B2008C51B2008D514400A6
:1040A0008E513D008F515800905146009151F800BB
:1040B00092510400935170009451F0009551F0001A
:1040C0009651030097510100985104009951120034
:1040D0009A5104009B5100009C5106009D518200A2
:1040E0009E510000255080008355400084554000BB
:1040F000805502000050CF001037100032365100BA
:10410000023710000337B200043718000B374000A5
:104110000D370300313601003236520006362400D6
:104120002036960085570700133A300000365200BB
:104130000436480006361B000D370B000F37C00051
:104140000937010023380000075000000950000023
:1041500011500000135000009E51000086500000D6
:104160008750000088500000895000002B3000006C
:1041700003350700113007000C3504000D355800D9
:1041800001388A0003380A00043807000538800027
:10419000063804000738380008380700093880005E
:1041A0000A3804000B3838000C3809000D38D600E6
:1041B0000E3804000F3858001C3811001D38BA00A2
:1041C0001E3804001F384800203804002138180029
:1041D000083A1400093AE0000A3A11000B3A60006C
:1041E0000D3A04000E3A0300825607008356600021
:1041F0008656040087561C0001507F0003350000DE
:10420000103010000150FF008355500084555000BD
:1042100080550200013C8000003C0400005848002A
:10422000015831000258210003581B0004581A009D
:1042300005581E000658290007583800085826005F
:10424000095817000A5811000B580E000C580D00A1
:104250000D580E000E5813000F581A001058150074
:1042600011580D0012580800135805001458040086
:10427000155805001658090017580D001858110058
:1042800019580A001A5804001B5800001C58000056
:104290001D5801001E5806001F5809002058120022
:1042A00021580B0022580400235800002458000015
:1042B000255801002658060027580A0028581700DC
:1042C00029580F002A5809002B5806002C580500C1
:1042D0002D5806002E580A002F580E00305828007E
:1042E00031581A003258110033580E0034580E005D
:1042F00035580F003658150037581D0038586E00D5
:10430000395839003A5827003B581F003C581E00C6
:104310003D5823003E582F003F58410040580E00A2
:1043200041580C0042580D0043580C0044580C00F2
:1043300045580C0046580C0047580C0048580D00D2
:1043400049580E004A580E004B580A004C580E00AF
:104350004D580E004E5810004F5810005058110084
:1043600051580A0052580F0053580E00545810006C
:10437000555810005658100057580A0058580E004B
:1043800059580E005A580F005B580F005C580F0028
:104390005D580A005E5809005F580D0060580C0017
:1043A00061580B0062580D006358070064581700ED
:1043B00065581400665818006758180068581600A9
:1043C000695812006A581B006B581A006C58160086
:1043D0006D5816006E5818006F581F0070581C005A
:1043E000715816007258100073580F00745813005B
:1043F00075581C0076581E00775817007858110021
:10440000795811007A5814007B581E007C581C0003
:104410007D581C007E581A007F581A0080581B00D7
:1044200081581F008258140083581A0084581D00B8
:1044300085581E0086581A0087581A008051FF00C0
:104440008151520082511100835114008451250082
:10445000855124008651140087511400885114009E
:10446000895169008A5160008B51A2008C519C00D7
:104470008D5136008E5134008F51540090514C00B4
:104480009151F80092510400935170009451F00042
:104490009551F00096510300975101009851050085
:1044A00099512F009A5104009B5100009C51060025
:1044B0009D51A0009E51A0008A5200008B52010025
:1044C0008C5204008D5208008E5210008F52200032
:1044D000905230009252000093520000945200001B
:1044E0009552010096520000975204009852000025
:1044F000995208009A5200009B5210009C520000F2
:104500009D5220009E5200009F52300082520000B7
:1045100000530000015320000253000003537C00AD
:104520000C5300000D5310000E5320000F53800059
:1045300010532000115380000853200009534000FD
:104540000453000005533000065300000753800059
:10455000145308001553200019533000165310004F
:1045600017530000185302008053010081530000CC
:104570008253000083531F008453000085530600BC
:104580008653000087530000885300008953E100E0
:104590008A5300008B532B008C5300008D53000076
:1045A0008E5300008F531000905300009153B300BE
:1045B000925300009353A6009453080080540C00BB
:1045C0008154180082542F00835455008454640091
:1045D0008554710086547D0087548700885491006B
:1045E00089549A008A54AA008B54B8008C54CD0088
:1045F0008D54DD008E54EA008F541D009054050048
:1046000091540000925404009354200094540300E9
:1046100095546000965402009754B80098540200D4
:10462000995486009A5402009B545B009C540200EB
:104630009D543B009E5402009F541C00A054020055
:10464000A1540400A2540100A354ED00A45401009D
:10465000A554C500A6540100A754A500A854010004
:10466000A9546C00AA540100AB544100AC540100A1
:10467000AD542000AE540000AF541600B0540100F9
:10468000B1542000B2540000B3541000B4540000E0
:10469000B554F000B6540000B754DF0002543F0098
:1046A0000354000000551000025500000355060099
:1046B0000455000005557F00255080000F3A30005A
:1046C000103A28001B3A30001E3A2800113A6100C7
:1046D0001F3A10008856FD008956DF008A56FE00FA
:1046E0008B56EF008C56FE008D56EF008E56AA00BA
:1046F0008F56AA00103000001838A8002136270075
:10470000FFFFFF00033193000830820017307F0065
:104710001830FC001038C2001536F00000300000E0
:104720000130000002300000033000000430FF00C0
:1047300030302B00113008001030100004366000BB
:1047400022366000213609000937000000402100B0
:104750001D402200003654000536040006363F0096
:10476000013C80000D3022002336220000504F0013
:1047700020500400815179008251000085512200AF
:104780009751010000550A000455000005557F00AF
:10479000805008000E301800104600001D4705002C
:1047A000084706000C37A00008380A000938200026
:1047B0000A3807000B3898000C380C000D388000C0
:1047C0000E3807000F38D000875694001F500000A5
:1047D00000504F000150CF00004330000043300034
:1047E0000B4635001D47000002300C00023000006F
:1047F000134703001C475000214702000244900069
:104800000C462200153844000335070001357300BB
:10481000023580000B3500001838C80001388800C8
:1048200024381100003A78001A3A0400133A300094
:10483000183A0000193A7C00083A1200093AC00000
:104840000A3A0F000B3AA0000C3507000D35D000D6
:104850000D3A08000E3A0600003500000135000050
:10486000023500000A3500000B350000033500005A
:1048700030302B00023A0000033A7D00043A000079
:10488000143A0000153A7D00163A0000003A78000C
:10489000083A0900093A60000A3A07000B3AD000CA
:1048A0000D3A10000E3A0D000744040093517000B9
:1048B0009B5800009A58C0001E4020000140420052
:1048C0001C4006002538AC0027380C0002543F007D
:1048D000035400000634000025508000835540003A
:1048E00084554000805502000050CF001037100062
:1048F00032365100023710000337B2000437180077
:104900000B3740000D3703003136010032365200BC
:10491000063624002036960085570700133A3000EB
:10492000003652000436480006361B000D370B00D7
:104930000F37C0000937010023380000075000007E
:104940000950000011500000135000009E5100005B
:1049500086500000875000008850000089500000F9
:104960002B30000003350700113008000C35020021
:104970000D35E4002136C9000A37810003380800EC
:104980000438050005380000063802000738D0005A
:1049900008380500093800000A3802000B38D0003A
:1049A0000C3808000D3872000E3802000F38E40091
:1049B0001038C0001838C9001C3810001D38A0007D
:1049C0001E3805001F38B0002038000021380000D4
:1049D00024381100083A1B00093AC0000A3A1700AF
:1049E0000B3A20000D3A02000E3A01001C40040070
:1049F0008256050083560000865602008756CC007A
:104A000001507F009B5806009A58C50003350000EE
:104A1000103010000150FF008355500084555000A5
:104A200080550200013C8000003C04000058480012
:104A3000015831000258210003581B0004581A0085
:104A400005581E0006582900075838000858260047
:104A5000095817000A5811000B580E000C580D0089
:104A60000D580E000E5813000F581A00105815005C
:104A700011580D001258080013580500145804006E
:104A8000155805001658090017580D001858110040
:104A900019580A001A5804001B5800001C5800003E
:104AA0001D5801001E5806001F580900205812000A
:104AB00021580B00225804002358000024580000FD
:104AC000255801002658060027580A0028581700C4
:104AD00029580F002A5809002B5806002C580500A9
:104AE0002D5806002E580A002F580E003058280066
:104AF00031581A003258110033580E0034580E0045
:104B000035580F003658150037581D0038586E00BC
:104B1000395839003A5827003B581F003C581E00AE
:104B20003D5823003E582F003F58410040580E008A
:104B300041580C0042580D0043580C0044580C00DA
:104B400045580C0046580C0047580C0048580D00BA
:104B500049580E004A580E004B580A004C580E0097
:104B60004D580E004E5810004F581000505811006C
:104B700051580A0052580F0053580E005458100054
:104B8000555810005658100057580A0058580E0033
:104B900059580E005A580F005B580F005C580F0010
:104BA0005D580A005E5809005F580D0060580C00FF
:104BB00061580B0062580D006358070064581700D5
:104BC0006558140066581800675818006858160091
:104BD000695812006A581B006B581A006C5816006E
:104BE0006D5816006E5818006F581F0070581C0042
:104BF000715816007258100073580F007458130043
:104C000075581C0076581E00775817007858110008
:104C1000795811007A5814007B581E007C581C00EB
:104C20007D581C007E581A007F581A0080581B00BF
:104C300081581F008258140083581A0084581D00A0
:104C400085581E0086581A0087581A008051FF00A8
:104C5000815152008251110083511400845125006A
:104C60008551240086511400875114008851140086
:104C7000895169008A5160008B51A2008C519C00BF
:104C80008D5136008E5134008F51540090514C009C
:104C90009151F80092510400935170009451F0002A
:104CA0009551F0009651030097510100985105006D
:104CB00099512F009A5104009B5100009C5106000D
:104CC0009D51A0009E51A0008A5200008B5201000D
:104CD0008C5204008D5208008E5210008F5220001A
:104CE0009052300092520000935200009452000003
:104CF000955201009652000097520400985200000D
:104D0000995208009A5200009B5210009C520000D9
:104D10009D5220009E5200009F523000825200009F
:104D200000530000015320000253000003537C0095
:104D30000C5300000D5310000E5320000F53800041
:104D400010532000115380000853200009534000E5
:104D50000453000005533000065300000753800041
:104D60001453080015532000195330001653100037
:104D700017530000185302008053010081530000B4
:104D80008253000083531F008453000085530600A4
:104D90008653000087530000885300008953E100C8
:104DA0008A5300008B532B008C5300008D5300005E
:104DB0008E5300008F531000905300009153B300A6
:104DC000925300009353A6009453080080540C00A3
:104DD0008154180082542F00835455008454640079
:104DE0008554710086547D00875487008854910053
:104DF00089549A008A54AA008B54B8008C54CD0070
:104E00008D54DD008E54EA008F541D00905405002F
:104E100091540000925404009354200094540300D1
:104E200095546000965402009754B80098540200BC
:104E3000995486009A5402009B545B009C540200D3
:104E40009D543B009E5402009F541C00A05402003D
:104E5000A1540400A2540100A354ED00A454010085
:104E6000A554C500A6540100A754A500A8540100EC
:104E7000A9546C00AA540100AB544100AC54010089
:104E8000AD542000AE540000AF541600B0540100E1
:104E9000B1542000B2540000B3541000B4540000C8
:104EA000B554F000B6540000B754DF0002543F0080
:104EB0000354000000551000025500000355060081
:104EC0000455000005557F00255080000F3A300042
:104ED000103A28001B3A30001E3A2800113A6100AF
:104EE0001F3A10008856FD008956DF008A56FE00E2
:104EF0008B56EF008C56FE008D56EF008E56AA00A2
:104F00008F56AA001838A80021362700FFFFFF009F
:104F10004047200050406E0051408F000830420052
:104F20000331030017307F001830FF002C300200DF
:104F30000831010030362E003236E20033362300CD
:104F40002136E0000437A00003375A0015377800F7
:104F5000173701000B37600005371A0005390200CA
:104F60000639100001390A003137120000360800F6
:104F7000013633002D306000203652001B372000F0
:104F80001C475000183A0000193AF80035361C004A
:104F90003436400022360100043C2800053C9800CD
:104FA000063C0000073C0800083C0000093C1C00CF
:104FB0000A3C9C000B3C4000203841002138010095
:104FC00000380000013800000238000003380400F7
:104FD00004380A0005383F000638070007389B00F0
:104FE00008380500093800000A3803000B38C000F3
:104FF0001038000011381000123800001338060075
:10500000143831001538310034301A0035302100A1
:105010003630460037301300383000003930000099
:105020000C3807000D3868000E3803000F38D80020
:10503000013CB400003C0400083A0000093A930027
:105040000E3A06000A3A00000B3A7B000D3A0800BF
:10505000003A3C00023A0500033AC400143A050045
:10506000153AC400183600001236290008376400CB
:10507000093752000C3703000140020004400200CF
:105080000030000002301C000430FF000630C30076
:105090000E3058002E300000004330001F5000003A
:1050A00013470300074404000B4635000C4622005A
:1050B000243801000150A30006340100003406002A
:1050C000013480000234040003340000043406007C
:1050D000053400008051FF008151F2008251000030
:1050E00083511400845125008551240086511600F7
:1050F0008751160088511600895162008A5162005A
:105100008B51F0008C51B2008D5150008E51300007
:105110008F513000905150009151F800925104008D
:10512000935170009451F0009551F0009651030096
:105130009751010098510400995112009A510400AE
:105140009B5100009C5106009D5182009E513800E9
:1051500081531E0082535B00835314008453060066
:10516000855382008653880087537C0088536000F3
:1051700089531C008A5301008B5398000053080088
:105180000153300002533F00035310000453080042
:105190000553300006531800075328000953080030
:1051A0000A5330000B5304000C53060080540100D6
:1051B00081540600825412008354240084544A000F
:1051C00085545800865465008754720088547D00C9
:1051D000895488008A5492008B54A3008C54B200E6
:1051E0008D54C8008E54DD008F54F000905415008B
:1051F00080550600835540008455200089551000D5
:105200008A5500008B55F8000050A7000058200078
:1052100001581900025817000358160004581800C6
:105220000558210006580F0007580A0008580700C3
:10523000095807000A580A000B580C000C580A00BD
:105240000D5803000E5801000F58010010580300BC
:105250001158090012580A0013580300145801008D
:105260001558010016580300175808001858100068
:1052700019580A001A5806001B5806001C58080046
:105280001D580E001E5822001F58180020581300E9
:10529000215812002258160023581E00245864007A
:1052A00025582A0026582C0027582A00285846003E
:1052B00029582A002A5826002B5824002C5826004A
:1052C0002D582A002E5828002F58420030584000F0
:1052D000315842003258080033582800345826000C
:1052E000355824003658260037582A0038584400CC
:1052F00039584A003A582C003B582A003C5846007E
:105300003D58CE0088562200895622008A56420017
:105310008B5624008C5642008D5624008E56220057
:105320008F562200255000000F3A3000103A280016
:105330001B3A30001E3A2800113A61001F3A100053
:1053400005401A0006340000033500000830020052
:10535000FFFFFF003530110036304600073C0800E3
:10536000203841002138010014383100153831004F
:105370000038000001380000023800000338040043
:1053800004380A0005383F000638070007389B003C
:1053900008380200093880000A3801000B38E000A4
:1053A0000C3807000D3868000E3803000F38D8009D
:1053B000133806001836000012362900093752004B
:1053C0000C370300023A1700033A1000143A170092
:1053D000153A10000440020002301C000630C300E1
:1053E00013470300074404000B4635000C46220017
:1053F00037482200243802000150A3000335000082
:105400000830020035304100404721000043610070
:1054100008380100093840000A3800000B38F00055
:105420001F500100FFFFFF002038400021382600F8
:1054300014381100153811000338000007389F0098
:1054400008380A00093820000A3807000B3898008D
:105450000C380B000D381C000E3807000F38B00058
:10546000133804001836040012364B000837640065
:10547000093712000C370000023A0700033AB00067
:105480000E3A06000D3A0800143A0700153AB0002B
:105490000140020004400600023000000630FF0018
:1054A0002438040001508300363069003530310063
:1054B00005401A00FFFFFF0000380000013800001F
:1054C000023800000338000004380A0005383F00A5
:1054D0000638070007389F0008380A0009382000FE
:1054E0000A3807000B3898000C380C000D38800083
:1054F0000E3807000F38D0000150A300805600007E
:105500008156000082560A0083562000845600000F
:10551000855600008656070087569800FFFFFF005B
:105520000038000001380000023800000338000095
:1055300004380A0005383F000638070007389F0086
:1055400008380100093840000A3800000B38F00024
:105550000C380C000D3880000E3807000F38D000D2
:105560000150A300805600008156000082560A00B8
:10557000835620008456000085560000865607009A
:1055800087569800FFFFFF00003800000138000038
:10559000023800000338000004380A0005383F00D4
:1055A0000638070007389F000838020009388000D5
:1055B0000A3801000B38E0000C380C000D38800070
:1055C0000E3807000F38D0000150A30080560000AD
:1055D0008156000082560A0083562000845600003F
:1055E000855600008656070087569800FFFFFF008B
:1055F00000380000013800000238000003380000C5
:1056000004380A0005383F000638070007389F00B5
:1056100008380300093820000A3801000B38E00080
:105620000C380C000D3880000E3807000F38D00001
:1056300010380000113810001238010013384800EB
:105640000150A300805600008156000082560A00D7
:1056500083562000845600008556000086560700B9
:1056600087569800FFFFFF00003800000138000057
:10567000023800000338000004380A0005383F00F3
:105680000638070007389F00083801000938600015
:105690000A3801000B3820000C380C000D3880004F
:1056A0000E3807000F38D0001038000011381000F5
:1056B00012380000133870000150A300805600001B
:1056C0008156000082560A0083562000845600004E
:1056D000855600008656070087569800FFFFFF009A
:1056E00000380000013800000238000003380000D4
:1056F00004380A0005383F000638070007389F00C5
:1057000008380500093800000A3803000B38C000CB
:105710000C380C000D3880000E3807000F38D00010
:105720000150A300805600008156000082560A00F6
:1057300083562000845600008556000086560700D8
:1057400087569800FFFFFF00003800000138000076
:10575000023800000338000004380A0005383F0012
:105760000638070007389F0008380800093800008D
:105770000A3806000B3800000C380C000D38800089
:105780000E3807000F38D0000150A30080560000EB
:105790008156000082560A0083562000845600007D
:1057A000855600008656070087569800FFFFFF00C9
:1057B0000038000001380000023800000338000003
:1057C00004380A0005383F000638070007389F00F4
:1057D00008380600093840000A3804000B38B000C9
:1057E0000C380C000D3880000E3807000F38D00040
:1057F0000150A300805600008156000082560A0026
:105800008356200084560000855600008656070007
:1058100087569800FFFFFF000038000001380000A5
:10582000023800000338000004380A0005383F0041
:105830000638070007389F000838040009380000C0
:105840000A3803000B3800000C380C000D388000BB
:105850000E3807000F38D0000150A300805600001A
:105860008156000082560A008356200084560000AC
:10587000855600008656070087569800FFFFFF00F8
:10588000A05800080000002058000000280100086F
:10589000F858000858000020602600004401000865
:1058A00000000000010203040102030406070809C6
:1058B0000204060800A24A040000000000000000E4
:1058C00001020304060708090000000000000000B0
:1058D00000000000000000000001010000000000C6
:1058E00000000000000000000100000000000100B6
:0858F0000000000000000000B0
:04000005080000ED02
:00000001FF
